{"contracts/Chatroom_payment.sol":{"Chat_Payment":{"abi":[{"inputs":[{"internalType":"address","name":"_senderAddress","type":"address"},{"internalType":"string","name":"_room","type":"string"}],"name":"acceptConditionalPayment","outputs":[],"stateMutability":"payable","type":"function"},{"inputs":[{"internalType":"address","name":"_senderAddress","type":"address"},{"internalType":"string","name":"_room","type":"string"}],"name":"acceptPaymentRequest","outputs":[],"stateMutability":"payable","type":"function"},{"inputs":[{"internalType":"string","name":"_room","type":"string"},{"internalType":"address","name":"_senderAddress","type":"address"}],"name":"cancelConditionalPayment","outputs":[],"stateMutability":"nonpayable","type":"function"},{"inputs":[{"internalType":"address","name":"_receiverAddress","type":"address"}],"name":"checkPaymentRequest","outputs":[{"internalType":"bool","name":"exists","type":"bool"},{"internalType":"uint256","name":"balance","type":"uint256"}],"stateMutability":"view","type":"function"},{"inputs":[],"name":"getAllUser","outputs":[{"components":[{"internalType":"address","name":"userAddress","type":"address"},{"internalType":"uint256","name":"balance","type":"uint256"}],"internalType":"struct Chat_Payment.User[]","name":"","type":"tuple[]"}],"stateMutability":"view","type":"function"},{"inputs":[{"internalType":"uint256","name":"_txAmount","type":"uint256"},{"internalType":"address","name":"_txReceiver","type":"address"},{"internalType":"string","name":"room","type":"string"},{"internalType":"string","name":"currency","type":"string"},{"internalType":"uint256","name":"_durationInSeconds","type":"uint256"}],"name":"initiateConditionalPayment","outputs":[],"stateMutability":"payable","type":"function"},{"inputs":[{"internalType":"uint256","name":"_txAmount","type":"uint256"},{"internalType":"address","name":"_txReceiver","type":"address"},{"internalType":"string","name":"room","type":"string"},{"internalType":"string","name":"currency","type":"string"}],"name":"initiatePaymentRequest","outputs":[],"stateMutability":"payable","type":"function"},{"inputs":[{"internalType":"address","name":"userAddress","type":"address"}],"name":"registerAsUser","outputs":[],"stateMutability":"nonpayable","type":"function"},{"inputs":[],"name":"topUpAccount","outputs":[],"stateMutability":"payable","type":"function"},{"inputs":[],"name":"withdraw","outputs":[],"stateMutability":"nonpayable","type":"function"},{"inputs":[{"internalType":"uint256","name":"_amount","type":"uint256"},{"internalType":"address payable","name":"_externalAddress","type":"address"}],"name":"withdrawToExternalAddress","outputs":[],"stateMutability":"nonpayable","type":"function"}],"evm":{"bytecode":{"linkReferences":{},"object":"608060405234801561001057600080fd5b50612ad8806100206000396000f3fe60806040526004361061009c5760003560e01c80636d314fa6116100645780636d314fa6146101325780636e02de18146101705780637b097b811461018c5780638cab1c55146101b5578063ca9c9e3e146101d1578063dc19a8f6146101ed5761009c565b8063144b1bf2146100a15780631b813e86146100bd5780632b07114b146100e65780633ccfd60b146100f057806347531df814610107575b600080fd5b6100bb60048036038101906100b691906119bb565b610216565b005b3480156100c957600080fd5b506100e460048036038101906100df9190611a8b565b6106a3565b005b6100ee6107e5565b005b3480156100fc57600080fd5b506101056108c0565b005b34801561011357600080fd5b5061011c610a89565b6040516101299190611bc7565b60405180910390f35b34801561013e57600080fd5b5061015960048036038101906101549190611be9565b610b48565b604051610167929190611c40565b60405180910390f35b61018a600480360381019061018591906119bb565b610c8e565b005b34801561019857600080fd5b506101b360048036038101906101ae9190611be9565b61104b565b005b6101cf60048036038101906101ca9190611c69565b6110f8565b005b6101eb60048036038101906101e69190611d08565b611292565b005b3480156101f957600080fd5b50610214600480360381019061020f9190611dbb565b611577565b005b60003414610259576040517f08c379a000000000000000000000000000000000000000000000000000000000815260040161025090611ec0565b60405180910390fd5b60005b6002805490508110156106635760006002828154811061027f5761027e611ee0565b5b906000526020600020906007020190503373ffffffffffffffffffffffffffffffffffffffff168160020160009054906101000a900473ffffffffffffffffffffffffffffffffffffffff1673ffffffffffffffffffffffffffffffffffffffff161480156102f2575042816005015411155b801561031c57508280519060200120816006016040516103129190612012565b6040518091039020145b801561033d5750600015158160040160009054906101000a900460ff161515145b1561064f576000816001015490506001805490508110610392576040517f08c379a000000000000000000000000000000000000000000000000000000000815260040161038990612075565b60405180910390fd5b8473ffffffffffffffffffffffffffffffffffffffff16600182815481106103bd576103bc611ee0565b5b906000526020600020906006020160010160009054906101000a900473ffffffffffffffffffffffffffffffffffffffff1673ffffffffffffffffffffffffffffffffffffffff1614610445576040517f08c379a000000000000000000000000000000000000000000000000000000000815260040161043c90612107565b60405180910390fd5b83805190602001206001828154811061046157610460611ee0565b5b906000526020600020906006020160030160405161047f9190612012565b6040518091039020146104c7576040517f08c379a00000000000000000000000000000000000000000000000000000000081526004016104be90612199565b60405180910390fd5b600060028111156104db576104da6121b9565b5b600182815481106104ef576104ee611ee0565b5b906000526020600020906006020160050160009054906101000a900460ff1660028111156105205761051f6121b9565b5b14610560576040517f08c379a000000000000000000000000000000000000000000000000000000000815260040161055790612234565b60405180910390fd5b6000612710607d84600301546105769190612283565b61058091906122f4565b905060008184600301546105949190612325565b905060018460040160006101000a81548160ff0219169083151502179055508060006105bf33611719565b815481106105d0576105cf611ee0565b5b906000526020600020906002020160010160008282546105f09190612359565b9250508190555060026001848154811061060d5761060c611ee0565b5b906000526020600020906006020160050160006101000a81548160ff021916908360028111156106405761063f6121b9565b5b0217905550505050505061069f565b50808061065b9061238d565b91505061025c565b506040517f08c379a000000000000000000000000000000000000000000000000000000000815260040161069690612447565b60405180910390fd5b5050565b600082116106e6576040517f08c379a00000000000000000000000000000000000000000000000000000000081526004016106dd906124b3565b60405180910390fd5b8160006106f233611719565b8154811061070357610702611ee0565b5b9060005260206000209060020201600101541015610756576040517f08c379a000000000000000000000000000000000000000000000000000000000815260040161074d9061251f565b60405180910390fd5b81600061076233611719565b8154811061077357610772611ee0565b5b906000526020600020906002020160010160008282546107939190612325565b925050819055508073ffffffffffffffffffffffffffffffffffffffff166108fc839081150290604051600060405180830381858888f193505050501580156107e0573d6000803e3d6000fd5b505050565b60005b6000805490508110156108bd573373ffffffffffffffffffffffffffffffffffffffff16600082815481106108205761081f611ee0565b5b906000526020600020906002020160000160009054906101000a900473ffffffffffffffffffffffffffffffffffffffff1673ffffffffffffffffffffffffffffffffffffffff16036108aa57346000828154811061088257610881611ee0565b5b906000526020600020906002020160010160008282546108a29190612359565b925050819055505b80806108b59061238d565b9150506107e8565b50565b60005b600280549050811015610a4b573373ffffffffffffffffffffffffffffffffffffffff16600282815481106108fb576108fa611ee0565b5b906000526020600020906007020160020160009054906101000a900473ffffffffffffffffffffffffffffffffffffffff1673ffffffffffffffffffffffffffffffffffffffff161480156109865750600015156002828154811061096357610962611ee0565b5b906000526020600020906007020160040160009054906101000a900460ff161515145b15610a38576001600282815481106109a1576109a0611ee0565b5b906000526020600020906007020160040160006101000a81548160ff021916908315150217905550600281815481106109dd576109dc611ee0565b5b90600052602060002090600702016003015460006109fa33611719565b81548110610a0b57610a0a611ee0565b5b90600052602060002090600202016001016000828254610a2b9190612359565b9250508190555050610a87565b8080610a439061238d565b9150506108c3565b506040517f08c379a0000000000000000000000000000000000000000000000000000000008152600401610a7e906125b1565b60405180910390fd5b565b60606000805480602002602001604051908101604052809291908181526020016000905b82821015610b3f57838290600052602060002090600202016040518060400160405290816000820160009054906101000a900473ffffffffffffffffffffffffffffffffffffffff1673ffffffffffffffffffffffffffffffffffffffff1673ffffffffffffffffffffffffffffffffffffffff16815260200160018201548152505081526020019060010190610aad565b50505050905090565b6000806000805b600180549050811015610c7e578473ffffffffffffffffffffffffffffffffffffffff1660018281548110610b8757610b86611ee0565b5b906000526020600020906006020160010160009054906101000a900473ffffffffffffffffffffffffffffffffffffffff1673ffffffffffffffffffffffffffffffffffffffff16148015610c32575060006002811115610beb57610bea6121b9565b5b60018281548110610bff57610bfe611ee0565b5b906000526020600020906006020160050160009054906101000a900460ff166002811115610c3057610c2f6121b9565b5b145b15610c6b5760018181548110610c4b57610c4a611ee0565b5b90600052602060002090600602016002015482610c689190612359565b91505b8080610c769061238d565b915050610b4f565b5060008111819250925050915091565b60003414610cd1576040517f08c379a0000000000000000000000000000000000000000000000000000000008152600401610cc890612669565b60405180910390fd5b60005b60018054905081101561100b578273ffffffffffffffffffffffffffffffffffffffff1660018281548110610d0c57610d0b611ee0565b5b906000526020600020906006020160010160009054906101000a900473ffffffffffffffffffffffffffffffffffffffff1673ffffffffffffffffffffffffffffffffffffffff16148015610da05750818051906020012060018281548110610d7857610d77611ee0565b5b9060005260206000209060060201600301604051610d969190612012565b6040518091039020145b8015610e02575060006002811115610dbb57610dba6121b9565b5b60018281548110610dcf57610dce611ee0565b5b906000526020600020906006020160050160009054906101000a900460ff166002811115610e0057610dff6121b9565b5b145b15610ff8576000612710607d60018481548110610e2257610e21611ee0565b5b906000526020600020906006020160020154610e3e9190612283565b610e4891906122f4565b905060008160018481548110610e6157610e60611ee0565b5b906000526020600020906006020160020154610e7d9190612325565b905060026040518060e0016040528060028054905081526020018581526020018773ffffffffffffffffffffffffffffffffffffffff168152602001838152602001600015158152602001428152602001868152509080600181540180825580915050600190039060005260206000209060070201600090919091909150600082015181600001556020820151816001015560408201518160020160006101000a81548173ffffffffffffffffffffffffffffffffffffffff021916908373ffffffffffffffffffffffffffffffffffffffff1602179055506060820151816003015560808201518160040160006101000a81548160ff02191690831515021790555060a0820151816005015560c0820151816006019081610f9f9190612840565b505050600260018481548110610fb857610fb7611ee0565b5b906000526020600020906006020160050160006101000a81548160ff02191690836002811115610feb57610fea6121b9565b5b0217905550505050611047565b80806110039061238d565b915050610cd4565b506040517f08c379a000000000000000000000000000000000000000000000000000000000815260040161103e90612984565b60405180910390fd5b5050565b600060405180604001604052808373ffffffffffffffffffffffffffffffffffffffff1681526020016000815250908060018154018082558091505060019003906000526020600020906002020160009091909190915060008201518160000160006101000a81548173ffffffffffffffffffffffffffffffffffffffff021916908373ffffffffffffffffffffffffffffffffffffffff16021790555060208201518160010155505050565b670de0b6b3a76400008461110c9190612283565b341461114d576040517f08c379a000000000000000000000000000000000000000000000000000000000815260040161114490612a16565b60405180910390fd5b60016040518060c0016040528060018054905081526020018573ffffffffffffffffffffffffffffffffffffffff168152602001348152602001848152602001838152602001600060028111156111a7576111a66121b9565b5b81525090806001815401808255809150506001900390600052602060002090600602016000909190919091506000820151816000015560208201518160010160006101000a81548173ffffffffffffffffffffffffffffffffffffffff021916908373ffffffffffffffffffffffffffffffffffffffff1602179055506040820151816002015560608201518160030190816112439190612840565b5060808201518160040190816112599190612840565b5060a08201518160050160006101000a81548160ff02191690836002811115611285576112846121b9565b5b0217905550505050505050565b670de0b6b3a7640000856112a69190612283565b34146112e7576040517f08c379a00000000000000000000000000000000000000000000000000000000081526004016112de90612a16565b60405180910390fd5b60016040518060c0016040528060018054905081526020018673ffffffffffffffffffffffffffffffffffffffff16815260200134815260200185815260200184815260200160006002811115611341576113406121b9565b5b81525090806001815401808255809150506001900390600052602060002090600602016000909190919091506000820151816000015560208201518160010160006101000a81548173ffffffffffffffffffffffffffffffffffffffff021916908373ffffffffffffffffffffffffffffffffffffffff1602179055506040820151816002015560608201518160030190816113dd9190612840565b5060808201518160040190816113f39190612840565b5060a08201518160050160006101000a81548160ff0219169083600281111561141f5761141e6121b9565b5b021790555050506000600180805490506114399190612325565b9050600082426114499190612359565b905060026040518060e0016040528060028054905081526020018481526020018873ffffffffffffffffffffffffffffffffffffffff168152602001898152602001600015158152602001838152602001878152509080600181540180825580915050600190039060005260206000209060070201600090919091909150600082015181600001556020820151816001015560408201518160020160006101000a81548173ffffffffffffffffffffffffffffffffffffffff021916908373ffffffffffffffffffffffffffffffffffffffff1602179055506060820151816003015560808201518160040160006101000a81548160ff02191690831515021790555060a0820151816005015560c082015181600601908161156b9190612840565b50505050505050505050565b60005b6002805490508110156116d95760006002828154811061159d5761159c611ee0565b5b906000526020600020906007020190508273ffffffffffffffffffffffffffffffffffffffff168160020160009054906101000a900473ffffffffffffffffffffffffffffffffffffffff1673ffffffffffffffffffffffffffffffffffffffff1614801561162a57508380519060200120816006016040516116209190612012565b6040518091039020145b801561164b5750600015158160040160009054906101000a900460ff161515145b156116c55760018160040160006101000a81548160ff02191690831515021790555060018082600101548154811061168657611685611ee0565b5b906000526020600020906006020160050160006101000a81548160ff021916908360028111156116b9576116b86121b9565b5b02179055505050611715565b5080806116d19061238d565b91505061157a565b506040517f08c379a000000000000000000000000000000000000000000000000000000000815260040161170c90612447565b60405180910390fd5b5050565b600080600090505b6000805490508110156117c2578273ffffffffffffffffffffffffffffffffffffffff166000828154811061175957611758611ee0565b5b906000526020600020906002020160000160009054906101000a900473ffffffffffffffffffffffffffffffffffffffff1673ffffffffffffffffffffffffffffffffffffffff16036117af57809150506117fe565b80806117ba9061238d565b915050611721565b506040517f08c379a00000000000000000000000000000000000000000000000000000000081526004016117f590612a82565b60405180910390fd5b919050565b6000604051905090565b600080fd5b600080fd5b600073ffffffffffffffffffffffffffffffffffffffff82169050919050565b600061184282611817565b9050919050565b61185281611837565b811461185d57600080fd5b50565b60008135905061186f81611849565b92915050565b600080fd5b600080fd5b6000601f19601f8301169050919050565b7f4e487b7100000000000000000000000000000000000000000000000000000000600052604160045260246000fd5b6118c88261187f565b810181811067ffffffffffffffff821117156118e7576118e6611890565b5b80604052505050565b60006118fa611803565b905061190682826118bf565b919050565b600067ffffffffffffffff82111561192657611925611890565b5b61192f8261187f565b9050602081019050919050565b82818337600083830152505050565b600061195e6119598461190b565b6118f0565b90508281526020810184848401111561197a5761197961187a565b5b61198584828561193c565b509392505050565b600082601f8301126119a2576119a1611875565b5b81356119b284826020860161194b565b91505092915050565b600080604083850312156119d2576119d161180d565b5b60006119e085828601611860565b925050602083013567ffffffffffffffff811115611a0157611a00611812565b5b611a0d8582860161198d565b9150509250929050565b6000819050919050565b611a2a81611a17565b8114611a3557600080fd5b50565b600081359050611a4781611a21565b92915050565b6000611a5882611817565b9050919050565b611a6881611a4d565b8114611a7357600080fd5b50565b600081359050611a8581611a5f565b92915050565b60008060408385031215611aa257611aa161180d565b5b6000611ab085828601611a38565b9250506020611ac185828601611a76565b9150509250929050565b600081519050919050565b600082825260208201905092915050565b6000819050602082019050919050565b611b0081611837565b82525050565b611b0f81611a17565b82525050565b604082016000820151611b2b6000850182611af7565b506020820151611b3e6020850182611b06565b50505050565b6000611b508383611b15565b60408301905092915050565b6000602082019050919050565b6000611b7482611acb565b611b7e8185611ad6565b9350611b8983611ae7565b8060005b83811015611bba578151611ba18882611b44565b9750611bac83611b5c565b925050600181019050611b8d565b5085935050505092915050565b60006020820190508181036000830152611be18184611b69565b905092915050565b600060208284031215611bff57611bfe61180d565b5b6000611c0d84828501611860565b91505092915050565b60008115159050919050565b611c2b81611c16565b82525050565b611c3a81611a17565b82525050565b6000604082019050611c556000830185611c22565b611c626020830184611c31565b9392505050565b60008060008060808587031215611c8357611c8261180d565b5b6000611c9187828801611a38565b9450506020611ca287828801611860565b935050604085013567ffffffffffffffff811115611cc357611cc2611812565b5b611ccf8782880161198d565b925050606085013567ffffffffffffffff811115611cf057611cef611812565b5b611cfc8782880161198d565b91505092959194509250565b600080600080600060a08688031215611d2457611d2361180d565b5b6000611d3288828901611a38565b9550506020611d4388828901611860565b945050604086013567ffffffffffffffff811115611d6457611d63611812565b5b611d708882890161198d565b935050606086013567ffffffffffffffff811115611d9157611d90611812565b5b611d9d8882890161198d565b9250506080611dae88828901611a38565b9150509295509295909350565b60008060408385031215611dd257611dd161180d565b5b600083013567ffffffffffffffff811115611df057611def611812565b5b611dfc8582860161198d565b9250506020611e0d85828601611860565b9150509250929050565b600082825260208201905092915050565b7f416363657074696e67206120636f6e646974696f6e616c207061796d656e742060008201527f646f6573206e6f7420726571756972652073656e64696e67206164646974696f60208201527f6e616c2066756e64730000000000000000000000000000000000000000000000604082015250565b6000611eaa604983611e17565b9150611eb582611e28565b606082019050919050565b60006020820190508181036000830152611ed981611e9d565b9050919050565b7f4e487b7100000000000000000000000000000000000000000000000000000000600052603260045260246000fd5b7f4e487b7100000000000000000000000000000000000000000000000000000000600052602260045260246000fd5b60006002820490506001821680611f5657607f821691505b602082108103611f6957611f68611f0f565b5b50919050565b600081905092915050565b60008190508160005260206000209050919050565b60008154611f9c81611f3e565b611fa68186611f6f565b94506001821660008114611fc15760018114611fd657612009565b60ff1983168652811515820286019350612009565b611fdf85611f7a565b60005b8381101561200157815481890152600182019150602081019050611fe2565b838801955050505b50505092915050565b600061201e8284611f8f565b915081905092915050565b7f496e76616c6964207061796d656e742072657175657374204944000000000000600082015250565b600061205f601a83611e17565b915061206a82612029565b602082019050919050565b6000602082019050818103600083015261208e81612052565b9050919050565b7f53656e646572206164647265737320646f6573206e6f74206d6174636820746860008201527f65207061796d656e742072657175657374000000000000000000000000000000602082015250565b60006120f1603183611e17565b91506120fc82612095565b604082019050919050565b60006020820190508181036000830152612120816120e4565b9050919050565b7f526f6f6d20646f6573206e6f74206d6174636820746865207061796d656e742060008201527f7265717565737400000000000000000000000000000000000000000000000000602082015250565b6000612183602783611e17565b915061218e82612127565b604082019050919050565b600060208201905081810360008301526121b281612176565b9050919050565b7f4e487b7100000000000000000000000000000000000000000000000000000000600052602160045260246000fd5b7f5061796d656e742072657175657374206973206e6f74206f70656e0000000000600082015250565b600061221e601b83611e17565b9150612229826121e8565b602082019050919050565b6000602082019050818103600083015261224d81612211565b9050919050565b7f4e487b7100000000000000000000000000000000000000000000000000000000600052601160045260246000fd5b600061228e82611a17565b915061229983611a17565b92508282026122a781611a17565b915082820484148315176122be576122bd612254565b5b5092915050565b7f4e487b7100000000000000000000000000000000000000000000000000000000600052601260045260246000fd5b60006122ff82611a17565b915061230a83611a17565b92508261231a576123196122c5565b5b828204905092915050565b600061233082611a17565b915061233b83611a17565b925082820390508181111561235357612352612254565b5b92915050565b600061236482611a17565b915061236f83611a17565b925082820190508082111561238757612386612254565b5b92915050565b600061239882611a17565b91507fffffffffffffffffffffffffffffffffffffffffffffffffffffffffffffffff82036123ca576123c9612254565b5b600182019050919050565b7f4d61746368696e6720636f6e646974696f6e616c207061796d656e74206e6f7460008201527f20666f756e640000000000000000000000000000000000000000000000000000602082015250565b6000612431602683611e17565b915061243c826123d5565b604082019050919050565b6000602082019050818103600083015261246081612424565b9050919050565b7f416d6f756e74206d7573742062652067726561746572207468616e2030000000600082015250565b600061249d601d83611e17565b91506124a882612467565b602082019050919050565b600060208201905081810360008301526124cc81612490565b9050919050565b7f496e73756666696369656e742062616c616e6365000000000000000000000000600082015250565b6000612509601483611e17565b9150612514826124d3565b602082019050919050565b60006020820190508181036000830152612538816124fc565b9050919050565b7f4e6f2066756e647320617661696c61626c6520666f722077697468647261776160008201527f6c00000000000000000000000000000000000000000000000000000000000000602082015250565b600061259b602183611e17565b91506125a68261253f565b604082019050919050565b600060208201905081810360008301526125ca8161258e565b9050919050565b7f416363657074696e672061207061796d656e74207265717565737420646f657360008201527f206e6f7420726571756972652073656e64696e67206164646974696f6e616c2060208201527f66756e6473000000000000000000000000000000000000000000000000000000604082015250565b6000612653604583611e17565b915061265e826125d1565b606082019050919050565b6000602082019050818103600083015261268281612646565b9050919050565b600081519050919050565b60008190508160005260206000209050919050565b60006020601f8301049050919050565b600082821b905092915050565b6000600883026126f67fffffffffffffffffffffffffffffffffffffffffffffffffffffffffffffffff826126b9565b61270086836126b9565b95508019841693508086168417925050509392505050565b6000819050919050565b600061273d61273861273384611a17565b612718565b611a17565b9050919050565b6000819050919050565b61275783612722565b61276b61276382612744565b8484546126c6565b825550505050565b600090565b612780612773565b61278b81848461274e565b505050565b5b818110156127af576127a4600082612778565b600181019050612791565b5050565b601f8211156127f4576127c581612694565b6127ce846126a9565b810160208510156127dd578190505b6127f16127e9856126a9565b830182612790565b50505b505050565b600082821c905092915050565b6000612817600019846008026127f9565b1980831691505092915050565b60006128308383612806565b9150826002028217905092915050565b61284982612689565b67ffffffffffffffff81111561286257612861611890565b5b61286c8254611f3e565b6128778282856127b3565b600060209050601f8311600181146128aa5760008415612898578287015190505b6128a28582612824565b86555061290a565b601f1984166128b886612694565b60005b828110156128e0578489015182556001820191506020850194506020810190506128bb565b868310156128fd57848901516128f9601f891682612806565b8355505b6001600288020188555050505b505050505050565b7f4d61746368696e67207061796d656e742072657175657374206e6f7420666f7560008201527f6e64000000000000000000000000000000000000000000000000000000000000602082015250565b600061296e602283611e17565b915061297982612912565b604082019050919050565b6000602082019050818103600083015261299d81612961565b9050919050565b7f53656e742076616c7565206d757374206d6174636820746865207472616e736160008201527f6374696f6e20616d6f756e740000000000000000000000000000000000000000602082015250565b6000612a00602c83611e17565b9150612a0b826129a4565b604082019050919050565b60006020820190508181036000830152612a2f816129f3565b9050919050565b7f55736572206e6f7420666f756e64000000000000000000000000000000000000600082015250565b6000612a6c600e83611e17565b9150612a7782612a36565b602082019050919050565b60006020820190508181036000830152612a9b81612a5f565b905091905056fea2646970667358221220e6a55036f0c9157ec64cf9ed4b61a14bbb6ff71eed4e6ac4a962d8df73c028a064736f6c63430008110033","opcodes":"PUSH1 0x80 PUSH1 0x40 MSTORE CALLVALUE DUP1 ISZERO PUSH2 0x10 JUMPI PUSH1 0x0 DUP1 REVERT JUMPDEST POP PUSH2 0x2AD8 DUP1 PUSH2 0x20 PUSH1 0x0 CODECOPY PUSH1 0x0 RETURN INVALID PUSH1 0x80 PUSH1 0x40 MSTORE PUSH1 0x4 CALLDATASIZE LT PUSH2 0x9C JUMPI PUSH1 0x0 CALLDATALOAD PUSH1 0xE0 SHR DUP1 PUSH4 0x6D314FA6 GT PUSH2 0x64 JUMPI DUP1 PUSH4 0x6D314FA6 EQ PUSH2 0x132 JUMPI DUP1 PUSH4 0x6E02DE18 EQ PUSH2 0x170 JUMPI DUP1 PUSH4 0x7B097B81 EQ PUSH2 0x18C JUMPI DUP1 PUSH4 0x8CAB1C55 EQ PUSH2 0x1B5 JUMPI DUP1 PUSH4 0xCA9C9E3E EQ PUSH2 0x1D1 JUMPI DUP1 PUSH4 0xDC19A8F6 EQ PUSH2 0x1ED JUMPI PUSH2 0x9C JUMP JUMPDEST DUP1 PUSH4 0x144B1BF2 EQ PUSH2 0xA1 JUMPI DUP1 PUSH4 0x1B813E86 EQ PUSH2 0xBD JUMPI DUP1 PUSH4 0x2B07114B EQ PUSH2 0xE6 JUMPI DUP1 PUSH4 0x3CCFD60B EQ PUSH2 0xF0 JUMPI DUP1 PUSH4 0x47531DF8 EQ PUSH2 0x107 JUMPI JUMPDEST PUSH1 0x0 DUP1 REVERT JUMPDEST PUSH2 0xBB PUSH1 0x4 DUP1 CALLDATASIZE SUB DUP2 ADD SWAP1 PUSH2 0xB6 SWAP2 SWAP1 PUSH2 0x19BB JUMP JUMPDEST PUSH2 0x216 JUMP JUMPDEST STOP JUMPDEST CALLVALUE DUP1 ISZERO PUSH2 0xC9 JUMPI PUSH1 0x0 DUP1 REVERT JUMPDEST POP PUSH2 0xE4 PUSH1 0x4 DUP1 CALLDATASIZE SUB DUP2 ADD SWAP1 PUSH2 0xDF SWAP2 SWAP1 PUSH2 0x1A8B JUMP JUMPDEST PUSH2 0x6A3 JUMP JUMPDEST STOP JUMPDEST PUSH2 0xEE PUSH2 0x7E5 JUMP JUMPDEST STOP JUMPDEST CALLVALUE DUP1 ISZERO PUSH2 0xFC JUMPI PUSH1 0x0 DUP1 REVERT JUMPDEST POP PUSH2 0x105 PUSH2 0x8C0 JUMP JUMPDEST STOP JUMPDEST CALLVALUE DUP1 ISZERO PUSH2 0x113 JUMPI PUSH1 0x0 DUP1 REVERT JUMPDEST POP PUSH2 0x11C PUSH2 0xA89 JUMP JUMPDEST PUSH1 0x40 MLOAD PUSH2 0x129 SWAP2 SWAP1 PUSH2 0x1BC7 JUMP JUMPDEST PUSH1 0x40 MLOAD DUP1 SWAP2 SUB SWAP1 RETURN JUMPDEST CALLVALUE DUP1 ISZERO PUSH2 0x13E JUMPI PUSH1 0x0 DUP1 REVERT JUMPDEST POP PUSH2 0x159 PUSH1 0x4 DUP1 CALLDATASIZE SUB DUP2 ADD SWAP1 PUSH2 0x154 SWAP2 SWAP1 PUSH2 0x1BE9 JUMP JUMPDEST PUSH2 0xB48 JUMP JUMPDEST PUSH1 0x40 MLOAD PUSH2 0x167 SWAP3 SWAP2 SWAP1 PUSH2 0x1C40 JUMP JUMPDEST PUSH1 0x40 MLOAD DUP1 SWAP2 SUB SWAP1 RETURN JUMPDEST PUSH2 0x18A PUSH1 0x4 DUP1 CALLDATASIZE SUB DUP2 ADD SWAP1 PUSH2 0x185 SWAP2 SWAP1 PUSH2 0x19BB JUMP JUMPDEST PUSH2 0xC8E JUMP JUMPDEST STOP JUMPDEST CALLVALUE DUP1 ISZERO PUSH2 0x198 JUMPI PUSH1 0x0 DUP1 REVERT JUMPDEST POP PUSH2 0x1B3 PUSH1 0x4 DUP1 CALLDATASIZE SUB DUP2 ADD SWAP1 PUSH2 0x1AE SWAP2 SWAP1 PUSH2 0x1BE9 JUMP JUMPDEST PUSH2 0x104B JUMP JUMPDEST STOP JUMPDEST PUSH2 0x1CF PUSH1 0x4 DUP1 CALLDATASIZE SUB DUP2 ADD SWAP1 PUSH2 0x1CA SWAP2 SWAP1 PUSH2 0x1C69 JUMP JUMPDEST PUSH2 0x10F8 JUMP JUMPDEST STOP JUMPDEST PUSH2 0x1EB PUSH1 0x4 DUP1 CALLDATASIZE SUB DUP2 ADD SWAP1 PUSH2 0x1E6 SWAP2 SWAP1 PUSH2 0x1D08 JUMP JUMPDEST PUSH2 0x1292 JUMP JUMPDEST STOP JUMPDEST CALLVALUE DUP1 ISZERO PUSH2 0x1F9 JUMPI PUSH1 0x0 DUP1 REVERT JUMPDEST POP PUSH2 0x214 PUSH1 0x4 DUP1 CALLDATASIZE SUB DUP2 ADD SWAP1 PUSH2 0x20F SWAP2 SWAP1 PUSH2 0x1DBB JUMP JUMPDEST PUSH2 0x1577 JUMP JUMPDEST STOP JUMPDEST PUSH1 0x0 CALLVALUE EQ PUSH2 0x259 JUMPI PUSH1 0x40 MLOAD PUSH32 0x8C379A000000000000000000000000000000000000000000000000000000000 DUP2 MSTORE PUSH1 0x4 ADD PUSH2 0x250 SWAP1 PUSH2 0x1EC0 JUMP JUMPDEST PUSH1 0x40 MLOAD DUP1 SWAP2 SUB SWAP1 REVERT JUMPDEST PUSH1 0x0 JUMPDEST PUSH1 0x2 DUP1 SLOAD SWAP1 POP DUP2 LT ISZERO PUSH2 0x663 JUMPI PUSH1 0x0 PUSH1 0x2 DUP3 DUP2 SLOAD DUP2 LT PUSH2 0x27F JUMPI PUSH2 0x27E PUSH2 0x1EE0 JUMP JUMPDEST JUMPDEST SWAP1 PUSH1 0x0 MSTORE PUSH1 0x20 PUSH1 0x0 KECCAK256 SWAP1 PUSH1 0x7 MUL ADD SWAP1 POP CALLER PUSH20 0xFFFFFFFFFFFFFFFFFFFFFFFFFFFFFFFFFFFFFFFF AND DUP2 PUSH1 0x2 ADD PUSH1 0x0 SWAP1 SLOAD SWAP1 PUSH2 0x100 EXP SWAP1 DIV PUSH20 0xFFFFFFFFFFFFFFFFFFFFFFFFFFFFFFFFFFFFFFFF AND PUSH20 0xFFFFFFFFFFFFFFFFFFFFFFFFFFFFFFFFFFFFFFFF AND EQ DUP1 ISZERO PUSH2 0x2F2 JUMPI POP TIMESTAMP DUP2 PUSH1 0x5 ADD SLOAD GT ISZERO JUMPDEST DUP1 ISZERO PUSH2 0x31C JUMPI POP DUP3 DUP1 MLOAD SWAP1 PUSH1 0x20 ADD KECCAK256 DUP2 PUSH1 0x6 ADD PUSH1 0x40 MLOAD PUSH2 0x312 SWAP2 SWAP1 PUSH2 0x2012 JUMP JUMPDEST PUSH1 0x40 MLOAD DUP1 SWAP2 SUB SWAP1 KECCAK256 EQ JUMPDEST DUP1 ISZERO PUSH2 0x33D JUMPI POP PUSH1 0x0 ISZERO ISZERO DUP2 PUSH1 0x4 ADD PUSH1 0x0 SWAP1 SLOAD SWAP1 PUSH2 0x100 EXP SWAP1 DIV PUSH1 0xFF AND ISZERO ISZERO EQ JUMPDEST ISZERO PUSH2 0x64F JUMPI PUSH1 0x0 DUP2 PUSH1 0x1 ADD SLOAD SWAP1 POP PUSH1 0x1 DUP1 SLOAD SWAP1 POP DUP2 LT PUSH2 0x392 JUMPI PUSH1 0x40 MLOAD PUSH32 0x8C379A000000000000000000000000000000000000000000000000000000000 DUP2 MSTORE PUSH1 0x4 ADD PUSH2 0x389 SWAP1 PUSH2 0x2075 JUMP JUMPDEST PUSH1 0x40 MLOAD DUP1 SWAP2 SUB SWAP1 REVERT JUMPDEST DUP5 PUSH20 0xFFFFFFFFFFFFFFFFFFFFFFFFFFFFFFFFFFFFFFFF AND PUSH1 0x1 DUP3 DUP2 SLOAD DUP2 LT PUSH2 0x3BD JUMPI PUSH2 0x3BC PUSH2 0x1EE0 JUMP JUMPDEST JUMPDEST SWAP1 PUSH1 0x0 MSTORE PUSH1 0x20 PUSH1 0x0 KECCAK256 SWAP1 PUSH1 0x6 MUL ADD PUSH1 0x1 ADD PUSH1 0x0 SWAP1 SLOAD SWAP1 PUSH2 0x100 EXP SWAP1 DIV PUSH20 0xFFFFFFFFFFFFFFFFFFFFFFFFFFFFFFFFFFFFFFFF AND PUSH20 0xFFFFFFFFFFFFFFFFFFFFFFFFFFFFFFFFFFFFFFFF AND EQ PUSH2 0x445 JUMPI PUSH1 0x40 MLOAD PUSH32 0x8C379A000000000000000000000000000000000000000000000000000000000 DUP2 MSTORE PUSH1 0x4 ADD PUSH2 0x43C SWAP1 PUSH2 0x2107 JUMP JUMPDEST PUSH1 0x40 MLOAD DUP1 SWAP2 SUB SWAP1 REVERT JUMPDEST DUP4 DUP1 MLOAD SWAP1 PUSH1 0x20 ADD KECCAK256 PUSH1 0x1 DUP3 DUP2 SLOAD DUP2 LT PUSH2 0x461 JUMPI PUSH2 0x460 PUSH2 0x1EE0 JUMP JUMPDEST JUMPDEST SWAP1 PUSH1 0x0 MSTORE PUSH1 0x20 PUSH1 0x0 KECCAK256 SWAP1 PUSH1 0x6 MUL ADD PUSH1 0x3 ADD PUSH1 0x40 MLOAD PUSH2 0x47F SWAP2 SWAP1 PUSH2 0x2012 JUMP JUMPDEST PUSH1 0x40 MLOAD DUP1 SWAP2 SUB SWAP1 KECCAK256 EQ PUSH2 0x4C7 JUMPI PUSH1 0x40 MLOAD PUSH32 0x8C379A000000000000000000000000000000000000000000000000000000000 DUP2 MSTORE PUSH1 0x4 ADD PUSH2 0x4BE SWAP1 PUSH2 0x2199 JUMP JUMPDEST PUSH1 0x40 MLOAD DUP1 SWAP2 SUB SWAP1 REVERT JUMPDEST PUSH1 0x0 PUSH1 0x2 DUP2 GT ISZERO PUSH2 0x4DB JUMPI PUSH2 0x4DA PUSH2 0x21B9 JUMP JUMPDEST JUMPDEST PUSH1 0x1 DUP3 DUP2 SLOAD DUP2 LT PUSH2 0x4EF JUMPI PUSH2 0x4EE PUSH2 0x1EE0 JUMP JUMPDEST JUMPDEST SWAP1 PUSH1 0x0 MSTORE PUSH1 0x20 PUSH1 0x0 KECCAK256 SWAP1 PUSH1 0x6 MUL ADD PUSH1 0x5 ADD PUSH1 0x0 SWAP1 SLOAD SWAP1 PUSH2 0x100 EXP SWAP1 DIV PUSH1 0xFF AND PUSH1 0x2 DUP2 GT ISZERO PUSH2 0x520 JUMPI PUSH2 0x51F PUSH2 0x21B9 JUMP JUMPDEST JUMPDEST EQ PUSH2 0x560 JUMPI PUSH1 0x40 MLOAD PUSH32 0x8C379A000000000000000000000000000000000000000000000000000000000 DUP2 MSTORE PUSH1 0x4 ADD PUSH2 0x557 SWAP1 PUSH2 0x2234 JUMP JUMPDEST PUSH1 0x40 MLOAD DUP1 SWAP2 SUB SWAP1 REVERT JUMPDEST PUSH1 0x0 PUSH2 0x2710 PUSH1 0x7D DUP5 PUSH1 0x3 ADD SLOAD PUSH2 0x576 SWAP2 SWAP1 PUSH2 0x2283 JUMP JUMPDEST PUSH2 0x580 SWAP2 SWAP1 PUSH2 0x22F4 JUMP JUMPDEST SWAP1 POP PUSH1 0x0 DUP2 DUP5 PUSH1 0x3 ADD SLOAD PUSH2 0x594 SWAP2 SWAP1 PUSH2 0x2325 JUMP JUMPDEST SWAP1 POP PUSH1 0x1 DUP5 PUSH1 0x4 ADD PUSH1 0x0 PUSH2 0x100 EXP DUP2 SLOAD DUP2 PUSH1 0xFF MUL NOT AND SWAP1 DUP4 ISZERO ISZERO MUL OR SWAP1 SSTORE POP DUP1 PUSH1 0x0 PUSH2 0x5BF CALLER PUSH2 0x1719 JUMP JUMPDEST DUP2 SLOAD DUP2 LT PUSH2 0x5D0 JUMPI PUSH2 0x5CF PUSH2 0x1EE0 JUMP JUMPDEST JUMPDEST SWAP1 PUSH1 0x0 MSTORE PUSH1 0x20 PUSH1 0x0 KECCAK256 SWAP1 PUSH1 0x2 MUL ADD PUSH1 0x1 ADD PUSH1 0x0 DUP3 DUP3 SLOAD PUSH2 0x5F0 SWAP2 SWAP1 PUSH2 0x2359 JUMP JUMPDEST SWAP3 POP POP DUP2 SWAP1 SSTORE POP PUSH1 0x2 PUSH1 0x1 DUP5 DUP2 SLOAD DUP2 LT PUSH2 0x60D JUMPI PUSH2 0x60C PUSH2 0x1EE0 JUMP JUMPDEST JUMPDEST SWAP1 PUSH1 0x0 MSTORE PUSH1 0x20 PUSH1 0x0 KECCAK256 SWAP1 PUSH1 0x6 MUL ADD PUSH1 0x5 ADD PUSH1 0x0 PUSH2 0x100 EXP DUP2 SLOAD DUP2 PUSH1 0xFF MUL NOT AND SWAP1 DUP4 PUSH1 0x2 DUP2 GT ISZERO PUSH2 0x640 JUMPI PUSH2 0x63F PUSH2 0x21B9 JUMP JUMPDEST JUMPDEST MUL OR SWAP1 SSTORE POP POP POP POP POP POP PUSH2 0x69F JUMP JUMPDEST POP DUP1 DUP1 PUSH2 0x65B SWAP1 PUSH2 0x238D JUMP JUMPDEST SWAP2 POP POP PUSH2 0x25C JUMP JUMPDEST POP PUSH1 0x40 MLOAD PUSH32 0x8C379A000000000000000000000000000000000000000000000000000000000 DUP2 MSTORE PUSH1 0x4 ADD PUSH2 0x696 SWAP1 PUSH2 0x2447 JUMP JUMPDEST PUSH1 0x40 MLOAD DUP1 SWAP2 SUB SWAP1 REVERT JUMPDEST POP POP JUMP JUMPDEST PUSH1 0x0 DUP3 GT PUSH2 0x6E6 JUMPI PUSH1 0x40 MLOAD PUSH32 0x8C379A000000000000000000000000000000000000000000000000000000000 DUP2 MSTORE PUSH1 0x4 ADD PUSH2 0x6DD SWAP1 PUSH2 0x24B3 JUMP JUMPDEST PUSH1 0x40 MLOAD DUP1 SWAP2 SUB SWAP1 REVERT JUMPDEST DUP2 PUSH1 0x0 PUSH2 0x6F2 CALLER PUSH2 0x1719 JUMP JUMPDEST DUP2 SLOAD DUP2 LT PUSH2 0x703 JUMPI PUSH2 0x702 PUSH2 0x1EE0 JUMP JUMPDEST JUMPDEST SWAP1 PUSH1 0x0 MSTORE PUSH1 0x20 PUSH1 0x0 KECCAK256 SWAP1 PUSH1 0x2 MUL ADD PUSH1 0x1 ADD SLOAD LT ISZERO PUSH2 0x756 JUMPI PUSH1 0x40 MLOAD PUSH32 0x8C379A000000000000000000000000000000000000000000000000000000000 DUP2 MSTORE PUSH1 0x4 ADD PUSH2 0x74D SWAP1 PUSH2 0x251F JUMP JUMPDEST PUSH1 0x40 MLOAD DUP1 SWAP2 SUB SWAP1 REVERT JUMPDEST DUP2 PUSH1 0x0 PUSH2 0x762 CALLER PUSH2 0x1719 JUMP JUMPDEST DUP2 SLOAD DUP2 LT PUSH2 0x773 JUMPI PUSH2 0x772 PUSH2 0x1EE0 JUMP JUMPDEST JUMPDEST SWAP1 PUSH1 0x0 MSTORE PUSH1 0x20 PUSH1 0x0 KECCAK256 SWAP1 PUSH1 0x2 MUL ADD PUSH1 0x1 ADD PUSH1 0x0 DUP3 DUP3 SLOAD PUSH2 0x793 SWAP2 SWAP1 PUSH2 0x2325 JUMP JUMPDEST SWAP3 POP POP DUP2 SWAP1 SSTORE POP DUP1 PUSH20 0xFFFFFFFFFFFFFFFFFFFFFFFFFFFFFFFFFFFFFFFF AND PUSH2 0x8FC DUP4 SWAP1 DUP2 ISZERO MUL SWAP1 PUSH1 0x40 MLOAD PUSH1 0x0 PUSH1 0x40 MLOAD DUP1 DUP4 SUB DUP2 DUP6 DUP9 DUP9 CALL SWAP4 POP POP POP POP ISZERO DUP1 ISZERO PUSH2 0x7E0 JUMPI RETURNDATASIZE PUSH1 0x0 DUP1 RETURNDATACOPY RETURNDATASIZE PUSH1 0x0 REVERT JUMPDEST POP POP POP JUMP JUMPDEST PUSH1 0x0 JUMPDEST PUSH1 0x0 DUP1 SLOAD SWAP1 POP DUP2 LT ISZERO PUSH2 0x8BD JUMPI CALLER PUSH20 0xFFFFFFFFFFFFFFFFFFFFFFFFFFFFFFFFFFFFFFFF AND PUSH1 0x0 DUP3 DUP2 SLOAD DUP2 LT PUSH2 0x820 JUMPI PUSH2 0x81F PUSH2 0x1EE0 JUMP JUMPDEST JUMPDEST SWAP1 PUSH1 0x0 MSTORE PUSH1 0x20 PUSH1 0x0 KECCAK256 SWAP1 PUSH1 0x2 MUL ADD PUSH1 0x0 ADD PUSH1 0x0 SWAP1 SLOAD SWAP1 PUSH2 0x100 EXP SWAP1 DIV PUSH20 0xFFFFFFFFFFFFFFFFFFFFFFFFFFFFFFFFFFFFFFFF AND PUSH20 0xFFFFFFFFFFFFFFFFFFFFFFFFFFFFFFFFFFFFFFFF AND SUB PUSH2 0x8AA JUMPI CALLVALUE PUSH1 0x0 DUP3 DUP2 SLOAD DUP2 LT PUSH2 0x882 JUMPI PUSH2 0x881 PUSH2 0x1EE0 JUMP JUMPDEST JUMPDEST SWAP1 PUSH1 0x0 MSTORE PUSH1 0x20 PUSH1 0x0 KECCAK256 SWAP1 PUSH1 0x2 MUL ADD PUSH1 0x1 ADD PUSH1 0x0 DUP3 DUP3 SLOAD PUSH2 0x8A2 SWAP2 SWAP1 PUSH2 0x2359 JUMP JUMPDEST SWAP3 POP POP DUP2 SWAP1 SSTORE POP JUMPDEST DUP1 DUP1 PUSH2 0x8B5 SWAP1 PUSH2 0x238D JUMP JUMPDEST SWAP2 POP POP PUSH2 0x7E8 JUMP JUMPDEST POP JUMP JUMPDEST PUSH1 0x0 JUMPDEST PUSH1 0x2 DUP1 SLOAD SWAP1 POP DUP2 LT ISZERO PUSH2 0xA4B JUMPI CALLER PUSH20 0xFFFFFFFFFFFFFFFFFFFFFFFFFFFFFFFFFFFFFFFF AND PUSH1 0x2 DUP3 DUP2 SLOAD DUP2 LT PUSH2 0x8FB JUMPI PUSH2 0x8FA PUSH2 0x1EE0 JUMP JUMPDEST JUMPDEST SWAP1 PUSH1 0x0 MSTORE PUSH1 0x20 PUSH1 0x0 KECCAK256 SWAP1 PUSH1 0x7 MUL ADD PUSH1 0x2 ADD PUSH1 0x0 SWAP1 SLOAD SWAP1 PUSH2 0x100 EXP SWAP1 DIV PUSH20 0xFFFFFFFFFFFFFFFFFFFFFFFFFFFFFFFFFFFFFFFF AND PUSH20 0xFFFFFFFFFFFFFFFFFFFFFFFFFFFFFFFFFFFFFFFF AND EQ DUP1 ISZERO PUSH2 0x986 JUMPI POP PUSH1 0x0 ISZERO ISZERO PUSH1 0x2 DUP3 DUP2 SLOAD DUP2 LT PUSH2 0x963 JUMPI PUSH2 0x962 PUSH2 0x1EE0 JUMP JUMPDEST JUMPDEST SWAP1 PUSH1 0x0 MSTORE PUSH1 0x20 PUSH1 0x0 KECCAK256 SWAP1 PUSH1 0x7 MUL ADD PUSH1 0x4 ADD PUSH1 0x0 SWAP1 SLOAD SWAP1 PUSH2 0x100 EXP SWAP1 DIV PUSH1 0xFF AND ISZERO ISZERO EQ JUMPDEST ISZERO PUSH2 0xA38 JUMPI PUSH1 0x1 PUSH1 0x2 DUP3 DUP2 SLOAD DUP2 LT PUSH2 0x9A1 JUMPI PUSH2 0x9A0 PUSH2 0x1EE0 JUMP JUMPDEST JUMPDEST SWAP1 PUSH1 0x0 MSTORE PUSH1 0x20 PUSH1 0x0 KECCAK256 SWAP1 PUSH1 0x7 MUL ADD PUSH1 0x4 ADD PUSH1 0x0 PUSH2 0x100 EXP DUP2 SLOAD DUP2 PUSH1 0xFF MUL NOT AND SWAP1 DUP4 ISZERO ISZERO MUL OR SWAP1 SSTORE POP PUSH1 0x2 DUP2 DUP2 SLOAD DUP2 LT PUSH2 0x9DD JUMPI PUSH2 0x9DC PUSH2 0x1EE0 JUMP JUMPDEST JUMPDEST SWAP1 PUSH1 0x0 MSTORE PUSH1 0x20 PUSH1 0x0 KECCAK256 SWAP1 PUSH1 0x7 MUL ADD PUSH1 0x3 ADD SLOAD PUSH1 0x0 PUSH2 0x9FA CALLER PUSH2 0x1719 JUMP JUMPDEST DUP2 SLOAD DUP2 LT PUSH2 0xA0B JUMPI PUSH2 0xA0A PUSH2 0x1EE0 JUMP JUMPDEST JUMPDEST SWAP1 PUSH1 0x0 MSTORE PUSH1 0x20 PUSH1 0x0 KECCAK256 SWAP1 PUSH1 0x2 MUL ADD PUSH1 0x1 ADD PUSH1 0x0 DUP3 DUP3 SLOAD PUSH2 0xA2B SWAP2 SWAP1 PUSH2 0x2359 JUMP JUMPDEST SWAP3 POP POP DUP2 SWAP1 SSTORE POP POP PUSH2 0xA87 JUMP JUMPDEST DUP1 DUP1 PUSH2 0xA43 SWAP1 PUSH2 0x238D JUMP JUMPDEST SWAP2 POP POP PUSH2 0x8C3 JUMP JUMPDEST POP PUSH1 0x40 MLOAD PUSH32 0x8C379A000000000000000000000000000000000000000000000000000000000 DUP2 MSTORE PUSH1 0x4 ADD PUSH2 0xA7E SWAP1 PUSH2 0x25B1 JUMP JUMPDEST PUSH1 0x40 MLOAD DUP1 SWAP2 SUB SWAP1 REVERT JUMPDEST JUMP JUMPDEST PUSH1 0x60 PUSH1 0x0 DUP1 SLOAD DUP1 PUSH1 0x20 MUL PUSH1 0x20 ADD PUSH1 0x40 MLOAD SWAP1 DUP2 ADD PUSH1 0x40 MSTORE DUP1 SWAP3 SWAP2 SWAP1 DUP2 DUP2 MSTORE PUSH1 0x20 ADD PUSH1 0x0 SWAP1 JUMPDEST DUP3 DUP3 LT ISZERO PUSH2 0xB3F JUMPI DUP4 DUP3 SWAP1 PUSH1 0x0 MSTORE PUSH1 0x20 PUSH1 0x0 KECCAK256 SWAP1 PUSH1 0x2 MUL ADD PUSH1 0x40 MLOAD DUP1 PUSH1 0x40 ADD PUSH1 0x40 MSTORE SWAP1 DUP2 PUSH1 0x0 DUP3 ADD PUSH1 0x0 SWAP1 SLOAD SWAP1 PUSH2 0x100 EXP SWAP1 DIV PUSH20 0xFFFFFFFFFFFFFFFFFFFFFFFFFFFFFFFFFFFFFFFF AND PUSH20 0xFFFFFFFFFFFFFFFFFFFFFFFFFFFFFFFFFFFFFFFF AND PUSH20 0xFFFFFFFFFFFFFFFFFFFFFFFFFFFFFFFFFFFFFFFF AND DUP2 MSTORE PUSH1 0x20 ADD PUSH1 0x1 DUP3 ADD SLOAD DUP2 MSTORE POP POP DUP2 MSTORE PUSH1 0x20 ADD SWAP1 PUSH1 0x1 ADD SWAP1 PUSH2 0xAAD JUMP JUMPDEST POP POP POP POP SWAP1 POP SWAP1 JUMP JUMPDEST PUSH1 0x0 DUP1 PUSH1 0x0 DUP1 JUMPDEST PUSH1 0x1 DUP1 SLOAD SWAP1 POP DUP2 LT ISZERO PUSH2 0xC7E JUMPI DUP5 PUSH20 0xFFFFFFFFFFFFFFFFFFFFFFFFFFFFFFFFFFFFFFFF AND PUSH1 0x1 DUP3 DUP2 SLOAD DUP2 LT PUSH2 0xB87 JUMPI PUSH2 0xB86 PUSH2 0x1EE0 JUMP JUMPDEST JUMPDEST SWAP1 PUSH1 0x0 MSTORE PUSH1 0x20 PUSH1 0x0 KECCAK256 SWAP1 PUSH1 0x6 MUL ADD PUSH1 0x1 ADD PUSH1 0x0 SWAP1 SLOAD SWAP1 PUSH2 0x100 EXP SWAP1 DIV PUSH20 0xFFFFFFFFFFFFFFFFFFFFFFFFFFFFFFFFFFFFFFFF AND PUSH20 0xFFFFFFFFFFFFFFFFFFFFFFFFFFFFFFFFFFFFFFFF AND EQ DUP1 ISZERO PUSH2 0xC32 JUMPI POP PUSH1 0x0 PUSH1 0x2 DUP2 GT ISZERO PUSH2 0xBEB JUMPI PUSH2 0xBEA PUSH2 0x21B9 JUMP JUMPDEST JUMPDEST PUSH1 0x1 DUP3 DUP2 SLOAD DUP2 LT PUSH2 0xBFF JUMPI PUSH2 0xBFE PUSH2 0x1EE0 JUMP JUMPDEST JUMPDEST SWAP1 PUSH1 0x0 MSTORE PUSH1 0x20 PUSH1 0x0 KECCAK256 SWAP1 PUSH1 0x6 MUL ADD PUSH1 0x5 ADD PUSH1 0x0 SWAP1 SLOAD SWAP1 PUSH2 0x100 EXP SWAP1 DIV PUSH1 0xFF AND PUSH1 0x2 DUP2 GT ISZERO PUSH2 0xC30 JUMPI PUSH2 0xC2F PUSH2 0x21B9 JUMP JUMPDEST JUMPDEST EQ JUMPDEST ISZERO PUSH2 0xC6B JUMPI PUSH1 0x1 DUP2 DUP2 SLOAD DUP2 LT PUSH2 0xC4B JUMPI PUSH2 0xC4A PUSH2 0x1EE0 JUMP JUMPDEST JUMPDEST SWAP1 PUSH1 0x0 MSTORE PUSH1 0x20 PUSH1 0x0 KECCAK256 SWAP1 PUSH1 0x6 MUL ADD PUSH1 0x2 ADD SLOAD DUP3 PUSH2 0xC68 SWAP2 SWAP1 PUSH2 0x2359 JUMP JUMPDEST SWAP2 POP JUMPDEST DUP1 DUP1 PUSH2 0xC76 SWAP1 PUSH2 0x238D JUMP JUMPDEST SWAP2 POP POP PUSH2 0xB4F JUMP JUMPDEST POP PUSH1 0x0 DUP2 GT DUP2 SWAP3 POP SWAP3 POP POP SWAP2 POP SWAP2 JUMP JUMPDEST PUSH1 0x0 CALLVALUE EQ PUSH2 0xCD1 JUMPI PUSH1 0x40 MLOAD PUSH32 0x8C379A000000000000000000000000000000000000000000000000000000000 DUP2 MSTORE PUSH1 0x4 ADD PUSH2 0xCC8 SWAP1 PUSH2 0x2669 JUMP JUMPDEST PUSH1 0x40 MLOAD DUP1 SWAP2 SUB SWAP1 REVERT JUMPDEST PUSH1 0x0 JUMPDEST PUSH1 0x1 DUP1 SLOAD SWAP1 POP DUP2 LT ISZERO PUSH2 0x100B JUMPI DUP3 PUSH20 0xFFFFFFFFFFFFFFFFFFFFFFFFFFFFFFFFFFFFFFFF AND PUSH1 0x1 DUP3 DUP2 SLOAD DUP2 LT PUSH2 0xD0C JUMPI PUSH2 0xD0B PUSH2 0x1EE0 JUMP JUMPDEST JUMPDEST SWAP1 PUSH1 0x0 MSTORE PUSH1 0x20 PUSH1 0x0 KECCAK256 SWAP1 PUSH1 0x6 MUL ADD PUSH1 0x1 ADD PUSH1 0x0 SWAP1 SLOAD SWAP1 PUSH2 0x100 EXP SWAP1 DIV PUSH20 0xFFFFFFFFFFFFFFFFFFFFFFFFFFFFFFFFFFFFFFFF AND PUSH20 0xFFFFFFFFFFFFFFFFFFFFFFFFFFFFFFFFFFFFFFFF AND EQ DUP1 ISZERO PUSH2 0xDA0 JUMPI POP DUP2 DUP1 MLOAD SWAP1 PUSH1 0x20 ADD KECCAK256 PUSH1 0x1 DUP3 DUP2 SLOAD DUP2 LT PUSH2 0xD78 JUMPI PUSH2 0xD77 PUSH2 0x1EE0 JUMP JUMPDEST JUMPDEST SWAP1 PUSH1 0x0 MSTORE PUSH1 0x20 PUSH1 0x0 KECCAK256 SWAP1 PUSH1 0x6 MUL ADD PUSH1 0x3 ADD PUSH1 0x40 MLOAD PUSH2 0xD96 SWAP2 SWAP1 PUSH2 0x2012 JUMP JUMPDEST PUSH1 0x40 MLOAD DUP1 SWAP2 SUB SWAP1 KECCAK256 EQ JUMPDEST DUP1 ISZERO PUSH2 0xE02 JUMPI POP PUSH1 0x0 PUSH1 0x2 DUP2 GT ISZERO PUSH2 0xDBB JUMPI PUSH2 0xDBA PUSH2 0x21B9 JUMP JUMPDEST JUMPDEST PUSH1 0x1 DUP3 DUP2 SLOAD DUP2 LT PUSH2 0xDCF JUMPI PUSH2 0xDCE PUSH2 0x1EE0 JUMP JUMPDEST JUMPDEST SWAP1 PUSH1 0x0 MSTORE PUSH1 0x20 PUSH1 0x0 KECCAK256 SWAP1 PUSH1 0x6 MUL ADD PUSH1 0x5 ADD PUSH1 0x0 SWAP1 SLOAD SWAP1 PUSH2 0x100 EXP SWAP1 DIV PUSH1 0xFF AND PUSH1 0x2 DUP2 GT ISZERO PUSH2 0xE00 JUMPI PUSH2 0xDFF PUSH2 0x21B9 JUMP JUMPDEST JUMPDEST EQ JUMPDEST ISZERO PUSH2 0xFF8 JUMPI PUSH1 0x0 PUSH2 0x2710 PUSH1 0x7D PUSH1 0x1 DUP5 DUP2 SLOAD DUP2 LT PUSH2 0xE22 JUMPI PUSH2 0xE21 PUSH2 0x1EE0 JUMP JUMPDEST JUMPDEST SWAP1 PUSH1 0x0 MSTORE PUSH1 0x20 PUSH1 0x0 KECCAK256 SWAP1 PUSH1 0x6 MUL ADD PUSH1 0x2 ADD SLOAD PUSH2 0xE3E SWAP2 SWAP1 PUSH2 0x2283 JUMP JUMPDEST PUSH2 0xE48 SWAP2 SWAP1 PUSH2 0x22F4 JUMP JUMPDEST SWAP1 POP PUSH1 0x0 DUP2 PUSH1 0x1 DUP5 DUP2 SLOAD DUP2 LT PUSH2 0xE61 JUMPI PUSH2 0xE60 PUSH2 0x1EE0 JUMP JUMPDEST JUMPDEST SWAP1 PUSH1 0x0 MSTORE PUSH1 0x20 PUSH1 0x0 KECCAK256 SWAP1 PUSH1 0x6 MUL ADD PUSH1 0x2 ADD SLOAD PUSH2 0xE7D SWAP2 SWAP1 PUSH2 0x2325 JUMP JUMPDEST SWAP1 POP PUSH1 0x2 PUSH1 0x40 MLOAD DUP1 PUSH1 0xE0 ADD PUSH1 0x40 MSTORE DUP1 PUSH1 0x2 DUP1 SLOAD SWAP1 POP DUP2 MSTORE PUSH1 0x20 ADD DUP6 DUP2 MSTORE PUSH1 0x20 ADD DUP8 PUSH20 0xFFFFFFFFFFFFFFFFFFFFFFFFFFFFFFFFFFFFFFFF AND DUP2 MSTORE PUSH1 0x20 ADD DUP4 DUP2 MSTORE PUSH1 0x20 ADD PUSH1 0x0 ISZERO ISZERO DUP2 MSTORE PUSH1 0x20 ADD TIMESTAMP DUP2 MSTORE PUSH1 0x20 ADD DUP7 DUP2 MSTORE POP SWAP1 DUP1 PUSH1 0x1 DUP2 SLOAD ADD DUP1 DUP3 SSTORE DUP1 SWAP2 POP POP PUSH1 0x1 SWAP1 SUB SWAP1 PUSH1 0x0 MSTORE PUSH1 0x20 PUSH1 0x0 KECCAK256 SWAP1 PUSH1 0x7 MUL ADD PUSH1 0x0 SWAP1 SWAP2 SWAP1 SWAP2 SWAP1 SWAP2 POP PUSH1 0x0 DUP3 ADD MLOAD DUP2 PUSH1 0x0 ADD SSTORE PUSH1 0x20 DUP3 ADD MLOAD DUP2 PUSH1 0x1 ADD SSTORE PUSH1 0x40 DUP3 ADD MLOAD DUP2 PUSH1 0x2 ADD PUSH1 0x0 PUSH2 0x100 EXP DUP2 SLOAD DUP2 PUSH20 0xFFFFFFFFFFFFFFFFFFFFFFFFFFFFFFFFFFFFFFFF MUL NOT AND SWAP1 DUP4 PUSH20 0xFFFFFFFFFFFFFFFFFFFFFFFFFFFFFFFFFFFFFFFF AND MUL OR SWAP1 SSTORE POP PUSH1 0x60 DUP3 ADD MLOAD DUP2 PUSH1 0x3 ADD SSTORE PUSH1 0x80 DUP3 ADD MLOAD DUP2 PUSH1 0x4 ADD PUSH1 0x0 PUSH2 0x100 EXP DUP2 SLOAD DUP2 PUSH1 0xFF MUL NOT AND SWAP1 DUP4 ISZERO ISZERO MUL OR SWAP1 SSTORE POP PUSH1 0xA0 DUP3 ADD MLOAD DUP2 PUSH1 0x5 ADD SSTORE PUSH1 0xC0 DUP3 ADD MLOAD DUP2 PUSH1 0x6 ADD SWAP1 DUP2 PUSH2 0xF9F SWAP2 SWAP1 PUSH2 0x2840 JUMP JUMPDEST POP POP POP PUSH1 0x2 PUSH1 0x1 DUP5 DUP2 SLOAD DUP2 LT PUSH2 0xFB8 JUMPI PUSH2 0xFB7 PUSH2 0x1EE0 JUMP JUMPDEST JUMPDEST SWAP1 PUSH1 0x0 MSTORE PUSH1 0x20 PUSH1 0x0 KECCAK256 SWAP1 PUSH1 0x6 MUL ADD PUSH1 0x5 ADD PUSH1 0x0 PUSH2 0x100 EXP DUP2 SLOAD DUP2 PUSH1 0xFF MUL NOT AND SWAP1 DUP4 PUSH1 0x2 DUP2 GT ISZERO PUSH2 0xFEB JUMPI PUSH2 0xFEA PUSH2 0x21B9 JUMP JUMPDEST JUMPDEST MUL OR SWAP1 SSTORE POP POP POP POP PUSH2 0x1047 JUMP JUMPDEST DUP1 DUP1 PUSH2 0x1003 SWAP1 PUSH2 0x238D JUMP JUMPDEST SWAP2 POP POP PUSH2 0xCD4 JUMP JUMPDEST POP PUSH1 0x40 MLOAD PUSH32 0x8C379A000000000000000000000000000000000000000000000000000000000 DUP2 MSTORE PUSH1 0x4 ADD PUSH2 0x103E SWAP1 PUSH2 0x2984 JUMP JUMPDEST PUSH1 0x40 MLOAD DUP1 SWAP2 SUB SWAP1 REVERT JUMPDEST POP POP JUMP JUMPDEST PUSH1 0x0 PUSH1 0x40 MLOAD DUP1 PUSH1 0x40 ADD PUSH1 0x40 MSTORE DUP1 DUP4 PUSH20 0xFFFFFFFFFFFFFFFFFFFFFFFFFFFFFFFFFFFFFFFF AND DUP2 MSTORE PUSH1 0x20 ADD PUSH1 0x0 DUP2 MSTORE POP SWAP1 DUP1 PUSH1 0x1 DUP2 SLOAD ADD DUP1 DUP3 SSTORE DUP1 SWAP2 POP POP PUSH1 0x1 SWAP1 SUB SWAP1 PUSH1 0x0 MSTORE PUSH1 0x20 PUSH1 0x0 KECCAK256 SWAP1 PUSH1 0x2 MUL ADD PUSH1 0x0 SWAP1 SWAP2 SWAP1 SWAP2 SWAP1 SWAP2 POP PUSH1 0x0 DUP3 ADD MLOAD DUP2 PUSH1 0x0 ADD PUSH1 0x0 PUSH2 0x100 EXP DUP2 SLOAD DUP2 PUSH20 0xFFFFFFFFFFFFFFFFFFFFFFFFFFFFFFFFFFFFFFFF MUL NOT AND SWAP1 DUP4 PUSH20 0xFFFFFFFFFFFFFFFFFFFFFFFFFFFFFFFFFFFFFFFF AND MUL OR SWAP1 SSTORE POP PUSH1 0x20 DUP3 ADD MLOAD DUP2 PUSH1 0x1 ADD SSTORE POP POP POP JUMP JUMPDEST PUSH8 0xDE0B6B3A7640000 DUP5 PUSH2 0x110C SWAP2 SWAP1 PUSH2 0x2283 JUMP JUMPDEST CALLVALUE EQ PUSH2 0x114D JUMPI PUSH1 0x40 MLOAD PUSH32 0x8C379A000000000000000000000000000000000000000000000000000000000 DUP2 MSTORE PUSH1 0x4 ADD PUSH2 0x1144 SWAP1 PUSH2 0x2A16 JUMP JUMPDEST PUSH1 0x40 MLOAD DUP1 SWAP2 SUB SWAP1 REVERT JUMPDEST PUSH1 0x1 PUSH1 0x40 MLOAD DUP1 PUSH1 0xC0 ADD PUSH1 0x40 MSTORE DUP1 PUSH1 0x1 DUP1 SLOAD SWAP1 POP DUP2 MSTORE PUSH1 0x20 ADD DUP6 PUSH20 0xFFFFFFFFFFFFFFFFFFFFFFFFFFFFFFFFFFFFFFFF AND DUP2 MSTORE PUSH1 0x20 ADD CALLVALUE DUP2 MSTORE PUSH1 0x20 ADD DUP5 DUP2 MSTORE PUSH1 0x20 ADD DUP4 DUP2 MSTORE PUSH1 0x20 ADD PUSH1 0x0 PUSH1 0x2 DUP2 GT ISZERO PUSH2 0x11A7 JUMPI PUSH2 0x11A6 PUSH2 0x21B9 JUMP JUMPDEST JUMPDEST DUP2 MSTORE POP SWAP1 DUP1 PUSH1 0x1 DUP2 SLOAD ADD DUP1 DUP3 SSTORE DUP1 SWAP2 POP POP PUSH1 0x1 SWAP1 SUB SWAP1 PUSH1 0x0 MSTORE PUSH1 0x20 PUSH1 0x0 KECCAK256 SWAP1 PUSH1 0x6 MUL ADD PUSH1 0x0 SWAP1 SWAP2 SWAP1 SWAP2 SWAP1 SWAP2 POP PUSH1 0x0 DUP3 ADD MLOAD DUP2 PUSH1 0x0 ADD SSTORE PUSH1 0x20 DUP3 ADD MLOAD DUP2 PUSH1 0x1 ADD PUSH1 0x0 PUSH2 0x100 EXP DUP2 SLOAD DUP2 PUSH20 0xFFFFFFFFFFFFFFFFFFFFFFFFFFFFFFFFFFFFFFFF MUL NOT AND SWAP1 DUP4 PUSH20 0xFFFFFFFFFFFFFFFFFFFFFFFFFFFFFFFFFFFFFFFF AND MUL OR SWAP1 SSTORE POP PUSH1 0x40 DUP3 ADD MLOAD DUP2 PUSH1 0x2 ADD SSTORE PUSH1 0x60 DUP3 ADD MLOAD DUP2 PUSH1 0x3 ADD SWAP1 DUP2 PUSH2 0x1243 SWAP2 SWAP1 PUSH2 0x2840 JUMP JUMPDEST POP PUSH1 0x80 DUP3 ADD MLOAD DUP2 PUSH1 0x4 ADD SWAP1 DUP2 PUSH2 0x1259 SWAP2 SWAP1 PUSH2 0x2840 JUMP JUMPDEST POP PUSH1 0xA0 DUP3 ADD MLOAD DUP2 PUSH1 0x5 ADD PUSH1 0x0 PUSH2 0x100 EXP DUP2 SLOAD DUP2 PUSH1 0xFF MUL NOT AND SWAP1 DUP4 PUSH1 0x2 DUP2 GT ISZERO PUSH2 0x1285 JUMPI PUSH2 0x1284 PUSH2 0x21B9 JUMP JUMPDEST JUMPDEST MUL OR SWAP1 SSTORE POP POP POP POP POP POP POP JUMP JUMPDEST PUSH8 0xDE0B6B3A7640000 DUP6 PUSH2 0x12A6 SWAP2 SWAP1 PUSH2 0x2283 JUMP JUMPDEST CALLVALUE EQ PUSH2 0x12E7 JUMPI PUSH1 0x40 MLOAD PUSH32 0x8C379A000000000000000000000000000000000000000000000000000000000 DUP2 MSTORE PUSH1 0x4 ADD PUSH2 0x12DE SWAP1 PUSH2 0x2A16 JUMP JUMPDEST PUSH1 0x40 MLOAD DUP1 SWAP2 SUB SWAP1 REVERT JUMPDEST PUSH1 0x1 PUSH1 0x40 MLOAD DUP1 PUSH1 0xC0 ADD PUSH1 0x40 MSTORE DUP1 PUSH1 0x1 DUP1 SLOAD SWAP1 POP DUP2 MSTORE PUSH1 0x20 ADD DUP7 PUSH20 0xFFFFFFFFFFFFFFFFFFFFFFFFFFFFFFFFFFFFFFFF AND DUP2 MSTORE PUSH1 0x20 ADD CALLVALUE DUP2 MSTORE PUSH1 0x20 ADD DUP6 DUP2 MSTORE PUSH1 0x20 ADD DUP5 DUP2 MSTORE PUSH1 0x20 ADD PUSH1 0x0 PUSH1 0x2 DUP2 GT ISZERO PUSH2 0x1341 JUMPI PUSH2 0x1340 PUSH2 0x21B9 JUMP JUMPDEST JUMPDEST DUP2 MSTORE POP SWAP1 DUP1 PUSH1 0x1 DUP2 SLOAD ADD DUP1 DUP3 SSTORE DUP1 SWAP2 POP POP PUSH1 0x1 SWAP1 SUB SWAP1 PUSH1 0x0 MSTORE PUSH1 0x20 PUSH1 0x0 KECCAK256 SWAP1 PUSH1 0x6 MUL ADD PUSH1 0x0 SWAP1 SWAP2 SWAP1 SWAP2 SWAP1 SWAP2 POP PUSH1 0x0 DUP3 ADD MLOAD DUP2 PUSH1 0x0 ADD SSTORE PUSH1 0x20 DUP3 ADD MLOAD DUP2 PUSH1 0x1 ADD PUSH1 0x0 PUSH2 0x100 EXP DUP2 SLOAD DUP2 PUSH20 0xFFFFFFFFFFFFFFFFFFFFFFFFFFFFFFFFFFFFFFFF MUL NOT AND SWAP1 DUP4 PUSH20 0xFFFFFFFFFFFFFFFFFFFFFFFFFFFFFFFFFFFFFFFF AND MUL OR SWAP1 SSTORE POP PUSH1 0x40 DUP3 ADD MLOAD DUP2 PUSH1 0x2 ADD SSTORE PUSH1 0x60 DUP3 ADD MLOAD DUP2 PUSH1 0x3 ADD SWAP1 DUP2 PUSH2 0x13DD SWAP2 SWAP1 PUSH2 0x2840 JUMP JUMPDEST POP PUSH1 0x80 DUP3 ADD MLOAD DUP2 PUSH1 0x4 ADD SWAP1 DUP2 PUSH2 0x13F3 SWAP2 SWAP1 PUSH2 0x2840 JUMP JUMPDEST POP PUSH1 0xA0 DUP3 ADD MLOAD DUP2 PUSH1 0x5 ADD PUSH1 0x0 PUSH2 0x100 EXP DUP2 SLOAD DUP2 PUSH1 0xFF MUL NOT AND SWAP1 DUP4 PUSH1 0x2 DUP2 GT ISZERO PUSH2 0x141F JUMPI PUSH2 0x141E PUSH2 0x21B9 JUMP JUMPDEST JUMPDEST MUL OR SWAP1 SSTORE POP POP POP PUSH1 0x0 PUSH1 0x1 DUP1 DUP1 SLOAD SWAP1 POP PUSH2 0x1439 SWAP2 SWAP1 PUSH2 0x2325 JUMP JUMPDEST SWAP1 POP PUSH1 0x0 DUP3 TIMESTAMP PUSH2 0x1449 SWAP2 SWAP1 PUSH2 0x2359 JUMP JUMPDEST SWAP1 POP PUSH1 0x2 PUSH1 0x40 MLOAD DUP1 PUSH1 0xE0 ADD PUSH1 0x40 MSTORE DUP1 PUSH1 0x2 DUP1 SLOAD SWAP1 POP DUP2 MSTORE PUSH1 0x20 ADD DUP5 DUP2 MSTORE PUSH1 0x20 ADD DUP9 PUSH20 0xFFFFFFFFFFFFFFFFFFFFFFFFFFFFFFFFFFFFFFFF AND DUP2 MSTORE PUSH1 0x20 ADD DUP10 DUP2 MSTORE PUSH1 0x20 ADD PUSH1 0x0 ISZERO ISZERO DUP2 MSTORE PUSH1 0x20 ADD DUP4 DUP2 MSTORE PUSH1 0x20 ADD DUP8 DUP2 MSTORE POP SWAP1 DUP1 PUSH1 0x1 DUP2 SLOAD ADD DUP1 DUP3 SSTORE DUP1 SWAP2 POP POP PUSH1 0x1 SWAP1 SUB SWAP1 PUSH1 0x0 MSTORE PUSH1 0x20 PUSH1 0x0 KECCAK256 SWAP1 PUSH1 0x7 MUL ADD PUSH1 0x0 SWAP1 SWAP2 SWAP1 SWAP2 SWAP1 SWAP2 POP PUSH1 0x0 DUP3 ADD MLOAD DUP2 PUSH1 0x0 ADD SSTORE PUSH1 0x20 DUP3 ADD MLOAD DUP2 PUSH1 0x1 ADD SSTORE PUSH1 0x40 DUP3 ADD MLOAD DUP2 PUSH1 0x2 ADD PUSH1 0x0 PUSH2 0x100 EXP DUP2 SLOAD DUP2 PUSH20 0xFFFFFFFFFFFFFFFFFFFFFFFFFFFFFFFFFFFFFFFF MUL NOT AND SWAP1 DUP4 PUSH20 0xFFFFFFFFFFFFFFFFFFFFFFFFFFFFFFFFFFFFFFFF AND MUL OR SWAP1 SSTORE POP PUSH1 0x60 DUP3 ADD MLOAD DUP2 PUSH1 0x3 ADD SSTORE PUSH1 0x80 DUP3 ADD MLOAD DUP2 PUSH1 0x4 ADD PUSH1 0x0 PUSH2 0x100 EXP DUP2 SLOAD DUP2 PUSH1 0xFF MUL NOT AND SWAP1 DUP4 ISZERO ISZERO MUL OR SWAP1 SSTORE POP PUSH1 0xA0 DUP3 ADD MLOAD DUP2 PUSH1 0x5 ADD SSTORE PUSH1 0xC0 DUP3 ADD MLOAD DUP2 PUSH1 0x6 ADD SWAP1 DUP2 PUSH2 0x156B SWAP2 SWAP1 PUSH2 0x2840 JUMP JUMPDEST POP POP POP POP POP POP POP POP POP POP JUMP JUMPDEST PUSH1 0x0 JUMPDEST PUSH1 0x2 DUP1 SLOAD SWAP1 POP DUP2 LT ISZERO PUSH2 0x16D9 JUMPI PUSH1 0x0 PUSH1 0x2 DUP3 DUP2 SLOAD DUP2 LT PUSH2 0x159D JUMPI PUSH2 0x159C PUSH2 0x1EE0 JUMP JUMPDEST JUMPDEST SWAP1 PUSH1 0x0 MSTORE PUSH1 0x20 PUSH1 0x0 KECCAK256 SWAP1 PUSH1 0x7 MUL ADD SWAP1 POP DUP3 PUSH20 0xFFFFFFFFFFFFFFFFFFFFFFFFFFFFFFFFFFFFFFFF AND DUP2 PUSH1 0x2 ADD PUSH1 0x0 SWAP1 SLOAD SWAP1 PUSH2 0x100 EXP SWAP1 DIV PUSH20 0xFFFFFFFFFFFFFFFFFFFFFFFFFFFFFFFFFFFFFFFF AND PUSH20 0xFFFFFFFFFFFFFFFFFFFFFFFFFFFFFFFFFFFFFFFF AND EQ DUP1 ISZERO PUSH2 0x162A JUMPI POP DUP4 DUP1 MLOAD SWAP1 PUSH1 0x20 ADD KECCAK256 DUP2 PUSH1 0x6 ADD PUSH1 0x40 MLOAD PUSH2 0x1620 SWAP2 SWAP1 PUSH2 0x2012 JUMP JUMPDEST PUSH1 0x40 MLOAD DUP1 SWAP2 SUB SWAP1 KECCAK256 EQ JUMPDEST DUP1 ISZERO PUSH2 0x164B JUMPI POP PUSH1 0x0 ISZERO ISZERO DUP2 PUSH1 0x4 ADD PUSH1 0x0 SWAP1 SLOAD SWAP1 PUSH2 0x100 EXP SWAP1 DIV PUSH1 0xFF AND ISZERO ISZERO EQ JUMPDEST ISZERO PUSH2 0x16C5 JUMPI PUSH1 0x1 DUP2 PUSH1 0x4 ADD PUSH1 0x0 PUSH2 0x100 EXP DUP2 SLOAD DUP2 PUSH1 0xFF MUL NOT AND SWAP1 DUP4 ISZERO ISZERO MUL OR SWAP1 SSTORE POP PUSH1 0x1 DUP1 DUP3 PUSH1 0x1 ADD SLOAD DUP2 SLOAD DUP2 LT PUSH2 0x1686 JUMPI PUSH2 0x1685 PUSH2 0x1EE0 JUMP JUMPDEST JUMPDEST SWAP1 PUSH1 0x0 MSTORE PUSH1 0x20 PUSH1 0x0 KECCAK256 SWAP1 PUSH1 0x6 MUL ADD PUSH1 0x5 ADD PUSH1 0x0 PUSH2 0x100 EXP DUP2 SLOAD DUP2 PUSH1 0xFF MUL NOT AND SWAP1 DUP4 PUSH1 0x2 DUP2 GT ISZERO PUSH2 0x16B9 JUMPI PUSH2 0x16B8 PUSH2 0x21B9 JUMP JUMPDEST JUMPDEST MUL OR SWAP1 SSTORE POP POP POP PUSH2 0x1715 JUMP JUMPDEST POP DUP1 DUP1 PUSH2 0x16D1 SWAP1 PUSH2 0x238D JUMP JUMPDEST SWAP2 POP POP PUSH2 0x157A JUMP JUMPDEST POP PUSH1 0x40 MLOAD PUSH32 0x8C379A000000000000000000000000000000000000000000000000000000000 DUP2 MSTORE PUSH1 0x4 ADD PUSH2 0x170C SWAP1 PUSH2 0x2447 JUMP JUMPDEST PUSH1 0x40 MLOAD DUP1 SWAP2 SUB SWAP1 REVERT JUMPDEST POP POP JUMP JUMPDEST PUSH1 0x0 DUP1 PUSH1 0x0 SWAP1 POP JUMPDEST PUSH1 0x0 DUP1 SLOAD SWAP1 POP DUP2 LT ISZERO PUSH2 0x17C2 JUMPI DUP3 PUSH20 0xFFFFFFFFFFFFFFFFFFFFFFFFFFFFFFFFFFFFFFFF AND PUSH1 0x0 DUP3 DUP2 SLOAD DUP2 LT PUSH2 0x1759 JUMPI PUSH2 0x1758 PUSH2 0x1EE0 JUMP JUMPDEST JUMPDEST SWAP1 PUSH1 0x0 MSTORE PUSH1 0x20 PUSH1 0x0 KECCAK256 SWAP1 PUSH1 0x2 MUL ADD PUSH1 0x0 ADD PUSH1 0x0 SWAP1 SLOAD SWAP1 PUSH2 0x100 EXP SWAP1 DIV PUSH20 0xFFFFFFFFFFFFFFFFFFFFFFFFFFFFFFFFFFFFFFFF AND PUSH20 0xFFFFFFFFFFFFFFFFFFFFFFFFFFFFFFFFFFFFFFFF AND SUB PUSH2 0x17AF JUMPI DUP1 SWAP2 POP POP PUSH2 0x17FE JUMP JUMPDEST DUP1 DUP1 PUSH2 0x17BA SWAP1 PUSH2 0x238D JUMP JUMPDEST SWAP2 POP POP PUSH2 0x1721 JUMP JUMPDEST POP PUSH1 0x40 MLOAD PUSH32 0x8C379A000000000000000000000000000000000000000000000000000000000 DUP2 MSTORE PUSH1 0x4 ADD PUSH2 0x17F5 SWAP1 PUSH2 0x2A82 JUMP JUMPDEST PUSH1 0x40 MLOAD DUP1 SWAP2 SUB SWAP1 REVERT JUMPDEST SWAP2 SWAP1 POP JUMP JUMPDEST PUSH1 0x0 PUSH1 0x40 MLOAD SWAP1 POP SWAP1 JUMP JUMPDEST PUSH1 0x0 DUP1 REVERT JUMPDEST PUSH1 0x0 DUP1 REVERT JUMPDEST PUSH1 0x0 PUSH20 0xFFFFFFFFFFFFFFFFFFFFFFFFFFFFFFFFFFFFFFFF DUP3 AND SWAP1 POP SWAP2 SWAP1 POP JUMP JUMPDEST PUSH1 0x0 PUSH2 0x1842 DUP3 PUSH2 0x1817 JUMP JUMPDEST SWAP1 POP SWAP2 SWAP1 POP JUMP JUMPDEST PUSH2 0x1852 DUP2 PUSH2 0x1837 JUMP JUMPDEST DUP2 EQ PUSH2 0x185D JUMPI PUSH1 0x0 DUP1 REVERT JUMPDEST POP JUMP JUMPDEST PUSH1 0x0 DUP2 CALLDATALOAD SWAP1 POP PUSH2 0x186F DUP2 PUSH2 0x1849 JUMP JUMPDEST SWAP3 SWAP2 POP POP JUMP JUMPDEST PUSH1 0x0 DUP1 REVERT JUMPDEST PUSH1 0x0 DUP1 REVERT JUMPDEST PUSH1 0x0 PUSH1 0x1F NOT PUSH1 0x1F DUP4 ADD AND SWAP1 POP SWAP2 SWAP1 POP JUMP JUMPDEST PUSH32 0x4E487B7100000000000000000000000000000000000000000000000000000000 PUSH1 0x0 MSTORE PUSH1 0x41 PUSH1 0x4 MSTORE PUSH1 0x24 PUSH1 0x0 REVERT JUMPDEST PUSH2 0x18C8 DUP3 PUSH2 0x187F JUMP JUMPDEST DUP2 ADD DUP2 DUP2 LT PUSH8 0xFFFFFFFFFFFFFFFF DUP3 GT OR ISZERO PUSH2 0x18E7 JUMPI PUSH2 0x18E6 PUSH2 0x1890 JUMP JUMPDEST JUMPDEST DUP1 PUSH1 0x40 MSTORE POP POP POP JUMP JUMPDEST PUSH1 0x0 PUSH2 0x18FA PUSH2 0x1803 JUMP JUMPDEST SWAP1 POP PUSH2 0x1906 DUP3 DUP3 PUSH2 0x18BF JUMP JUMPDEST SWAP2 SWAP1 POP JUMP JUMPDEST PUSH1 0x0 PUSH8 0xFFFFFFFFFFFFFFFF DUP3 GT ISZERO PUSH2 0x1926 JUMPI PUSH2 0x1925 PUSH2 0x1890 JUMP JUMPDEST JUMPDEST PUSH2 0x192F DUP3 PUSH2 0x187F JUMP JUMPDEST SWAP1 POP PUSH1 0x20 DUP2 ADD SWAP1 POP SWAP2 SWAP1 POP JUMP JUMPDEST DUP3 DUP2 DUP4 CALLDATACOPY PUSH1 0x0 DUP4 DUP4 ADD MSTORE POP POP POP JUMP JUMPDEST PUSH1 0x0 PUSH2 0x195E PUSH2 0x1959 DUP5 PUSH2 0x190B JUMP JUMPDEST PUSH2 0x18F0 JUMP JUMPDEST SWAP1 POP DUP3 DUP2 MSTORE PUSH1 0x20 DUP2 ADD DUP5 DUP5 DUP5 ADD GT ISZERO PUSH2 0x197A JUMPI PUSH2 0x1979 PUSH2 0x187A JUMP JUMPDEST JUMPDEST PUSH2 0x1985 DUP5 DUP3 DUP6 PUSH2 0x193C JUMP JUMPDEST POP SWAP4 SWAP3 POP POP POP JUMP JUMPDEST PUSH1 0x0 DUP3 PUSH1 0x1F DUP4 ADD SLT PUSH2 0x19A2 JUMPI PUSH2 0x19A1 PUSH2 0x1875 JUMP JUMPDEST JUMPDEST DUP2 CALLDATALOAD PUSH2 0x19B2 DUP5 DUP3 PUSH1 0x20 DUP7 ADD PUSH2 0x194B JUMP JUMPDEST SWAP2 POP POP SWAP3 SWAP2 POP POP JUMP JUMPDEST PUSH1 0x0 DUP1 PUSH1 0x40 DUP4 DUP6 SUB SLT ISZERO PUSH2 0x19D2 JUMPI PUSH2 0x19D1 PUSH2 0x180D JUMP JUMPDEST JUMPDEST PUSH1 0x0 PUSH2 0x19E0 DUP6 DUP3 DUP7 ADD PUSH2 0x1860 JUMP JUMPDEST SWAP3 POP POP PUSH1 0x20 DUP4 ADD CALLDATALOAD PUSH8 0xFFFFFFFFFFFFFFFF DUP2 GT ISZERO PUSH2 0x1A01 JUMPI PUSH2 0x1A00 PUSH2 0x1812 JUMP JUMPDEST JUMPDEST PUSH2 0x1A0D DUP6 DUP3 DUP7 ADD PUSH2 0x198D JUMP JUMPDEST SWAP2 POP POP SWAP3 POP SWAP3 SWAP1 POP JUMP JUMPDEST PUSH1 0x0 DUP2 SWAP1 POP SWAP2 SWAP1 POP JUMP JUMPDEST PUSH2 0x1A2A DUP2 PUSH2 0x1A17 JUMP JUMPDEST DUP2 EQ PUSH2 0x1A35 JUMPI PUSH1 0x0 DUP1 REVERT JUMPDEST POP JUMP JUMPDEST PUSH1 0x0 DUP2 CALLDATALOAD SWAP1 POP PUSH2 0x1A47 DUP2 PUSH2 0x1A21 JUMP JUMPDEST SWAP3 SWAP2 POP POP JUMP JUMPDEST PUSH1 0x0 PUSH2 0x1A58 DUP3 PUSH2 0x1817 JUMP JUMPDEST SWAP1 POP SWAP2 SWAP1 POP JUMP JUMPDEST PUSH2 0x1A68 DUP2 PUSH2 0x1A4D JUMP JUMPDEST DUP2 EQ PUSH2 0x1A73 JUMPI PUSH1 0x0 DUP1 REVERT JUMPDEST POP JUMP JUMPDEST PUSH1 0x0 DUP2 CALLDATALOAD SWAP1 POP PUSH2 0x1A85 DUP2 PUSH2 0x1A5F JUMP JUMPDEST SWAP3 SWAP2 POP POP JUMP JUMPDEST PUSH1 0x0 DUP1 PUSH1 0x40 DUP4 DUP6 SUB SLT ISZERO PUSH2 0x1AA2 JUMPI PUSH2 0x1AA1 PUSH2 0x180D JUMP JUMPDEST JUMPDEST PUSH1 0x0 PUSH2 0x1AB0 DUP6 DUP3 DUP7 ADD PUSH2 0x1A38 JUMP JUMPDEST SWAP3 POP POP PUSH1 0x20 PUSH2 0x1AC1 DUP6 DUP3 DUP7 ADD PUSH2 0x1A76 JUMP JUMPDEST SWAP2 POP POP SWAP3 POP SWAP3 SWAP1 POP JUMP JUMPDEST PUSH1 0x0 DUP2 MLOAD SWAP1 POP SWAP2 SWAP1 POP JUMP JUMPDEST PUSH1 0x0 DUP3 DUP3 MSTORE PUSH1 0x20 DUP3 ADD SWAP1 POP SWAP3 SWAP2 POP POP JUMP JUMPDEST PUSH1 0x0 DUP2 SWAP1 POP PUSH1 0x20 DUP3 ADD SWAP1 POP SWAP2 SWAP1 POP JUMP JUMPDEST PUSH2 0x1B00 DUP2 PUSH2 0x1837 JUMP JUMPDEST DUP3 MSTORE POP POP JUMP JUMPDEST PUSH2 0x1B0F DUP2 PUSH2 0x1A17 JUMP JUMPDEST DUP3 MSTORE POP POP JUMP JUMPDEST PUSH1 0x40 DUP3 ADD PUSH1 0x0 DUP3 ADD MLOAD PUSH2 0x1B2B PUSH1 0x0 DUP6 ADD DUP3 PUSH2 0x1AF7 JUMP JUMPDEST POP PUSH1 0x20 DUP3 ADD MLOAD PUSH2 0x1B3E PUSH1 0x20 DUP6 ADD DUP3 PUSH2 0x1B06 JUMP JUMPDEST POP POP POP POP JUMP JUMPDEST PUSH1 0x0 PUSH2 0x1B50 DUP4 DUP4 PUSH2 0x1B15 JUMP JUMPDEST PUSH1 0x40 DUP4 ADD SWAP1 POP SWAP3 SWAP2 POP POP JUMP JUMPDEST PUSH1 0x0 PUSH1 0x20 DUP3 ADD SWAP1 POP SWAP2 SWAP1 POP JUMP JUMPDEST PUSH1 0x0 PUSH2 0x1B74 DUP3 PUSH2 0x1ACB JUMP JUMPDEST PUSH2 0x1B7E DUP2 DUP6 PUSH2 0x1AD6 JUMP JUMPDEST SWAP4 POP PUSH2 0x1B89 DUP4 PUSH2 0x1AE7 JUMP JUMPDEST DUP1 PUSH1 0x0 JUMPDEST DUP4 DUP2 LT ISZERO PUSH2 0x1BBA JUMPI DUP2 MLOAD PUSH2 0x1BA1 DUP9 DUP3 PUSH2 0x1B44 JUMP JUMPDEST SWAP8 POP PUSH2 0x1BAC DUP4 PUSH2 0x1B5C JUMP JUMPDEST SWAP3 POP POP PUSH1 0x1 DUP2 ADD SWAP1 POP PUSH2 0x1B8D JUMP JUMPDEST POP DUP6 SWAP4 POP POP POP POP SWAP3 SWAP2 POP POP JUMP JUMPDEST PUSH1 0x0 PUSH1 0x20 DUP3 ADD SWAP1 POP DUP2 DUP2 SUB PUSH1 0x0 DUP4 ADD MSTORE PUSH2 0x1BE1 DUP2 DUP5 PUSH2 0x1B69 JUMP JUMPDEST SWAP1 POP SWAP3 SWAP2 POP POP JUMP JUMPDEST PUSH1 0x0 PUSH1 0x20 DUP3 DUP5 SUB SLT ISZERO PUSH2 0x1BFF JUMPI PUSH2 0x1BFE PUSH2 0x180D JUMP JUMPDEST JUMPDEST PUSH1 0x0 PUSH2 0x1C0D DUP5 DUP3 DUP6 ADD PUSH2 0x1860 JUMP JUMPDEST SWAP2 POP POP SWAP3 SWAP2 POP POP JUMP JUMPDEST PUSH1 0x0 DUP2 ISZERO ISZERO SWAP1 POP SWAP2 SWAP1 POP JUMP JUMPDEST PUSH2 0x1C2B DUP2 PUSH2 0x1C16 JUMP JUMPDEST DUP3 MSTORE POP POP JUMP JUMPDEST PUSH2 0x1C3A DUP2 PUSH2 0x1A17 JUMP JUMPDEST DUP3 MSTORE POP POP JUMP JUMPDEST PUSH1 0x0 PUSH1 0x40 DUP3 ADD SWAP1 POP PUSH2 0x1C55 PUSH1 0x0 DUP4 ADD DUP6 PUSH2 0x1C22 JUMP JUMPDEST PUSH2 0x1C62 PUSH1 0x20 DUP4 ADD DUP5 PUSH2 0x1C31 JUMP JUMPDEST SWAP4 SWAP3 POP POP POP JUMP JUMPDEST PUSH1 0x0 DUP1 PUSH1 0x0 DUP1 PUSH1 0x80 DUP6 DUP8 SUB SLT ISZERO PUSH2 0x1C83 JUMPI PUSH2 0x1C82 PUSH2 0x180D JUMP JUMPDEST JUMPDEST PUSH1 0x0 PUSH2 0x1C91 DUP8 DUP3 DUP9 ADD PUSH2 0x1A38 JUMP JUMPDEST SWAP5 POP POP PUSH1 0x20 PUSH2 0x1CA2 DUP8 DUP3 DUP9 ADD PUSH2 0x1860 JUMP JUMPDEST SWAP4 POP POP PUSH1 0x40 DUP6 ADD CALLDATALOAD PUSH8 0xFFFFFFFFFFFFFFFF DUP2 GT ISZERO PUSH2 0x1CC3 JUMPI PUSH2 0x1CC2 PUSH2 0x1812 JUMP JUMPDEST JUMPDEST PUSH2 0x1CCF DUP8 DUP3 DUP9 ADD PUSH2 0x198D JUMP JUMPDEST SWAP3 POP POP PUSH1 0x60 DUP6 ADD CALLDATALOAD PUSH8 0xFFFFFFFFFFFFFFFF DUP2 GT ISZERO PUSH2 0x1CF0 JUMPI PUSH2 0x1CEF PUSH2 0x1812 JUMP JUMPDEST JUMPDEST PUSH2 0x1CFC DUP8 DUP3 DUP9 ADD PUSH2 0x198D JUMP JUMPDEST SWAP2 POP POP SWAP3 SWAP6 SWAP2 SWAP5 POP SWAP3 POP JUMP JUMPDEST PUSH1 0x0 DUP1 PUSH1 0x0 DUP1 PUSH1 0x0 PUSH1 0xA0 DUP7 DUP9 SUB SLT ISZERO PUSH2 0x1D24 JUMPI PUSH2 0x1D23 PUSH2 0x180D JUMP JUMPDEST JUMPDEST PUSH1 0x0 PUSH2 0x1D32 DUP9 DUP3 DUP10 ADD PUSH2 0x1A38 JUMP JUMPDEST SWAP6 POP POP PUSH1 0x20 PUSH2 0x1D43 DUP9 DUP3 DUP10 ADD PUSH2 0x1860 JUMP JUMPDEST SWAP5 POP POP PUSH1 0x40 DUP7 ADD CALLDATALOAD PUSH8 0xFFFFFFFFFFFFFFFF DUP2 GT ISZERO PUSH2 0x1D64 JUMPI PUSH2 0x1D63 PUSH2 0x1812 JUMP JUMPDEST JUMPDEST PUSH2 0x1D70 DUP9 DUP3 DUP10 ADD PUSH2 0x198D JUMP JUMPDEST SWAP4 POP POP PUSH1 0x60 DUP7 ADD CALLDATALOAD PUSH8 0xFFFFFFFFFFFFFFFF DUP2 GT ISZERO PUSH2 0x1D91 JUMPI PUSH2 0x1D90 PUSH2 0x1812 JUMP JUMPDEST JUMPDEST PUSH2 0x1D9D DUP9 DUP3 DUP10 ADD PUSH2 0x198D JUMP JUMPDEST SWAP3 POP POP PUSH1 0x80 PUSH2 0x1DAE DUP9 DUP3 DUP10 ADD PUSH2 0x1A38 JUMP JUMPDEST SWAP2 POP POP SWAP3 SWAP6 POP SWAP3 SWAP6 SWAP1 SWAP4 POP JUMP JUMPDEST PUSH1 0x0 DUP1 PUSH1 0x40 DUP4 DUP6 SUB SLT ISZERO PUSH2 0x1DD2 JUMPI PUSH2 0x1DD1 PUSH2 0x180D JUMP JUMPDEST JUMPDEST PUSH1 0x0 DUP4 ADD CALLDATALOAD PUSH8 0xFFFFFFFFFFFFFFFF DUP2 GT ISZERO PUSH2 0x1DF0 JUMPI PUSH2 0x1DEF PUSH2 0x1812 JUMP JUMPDEST JUMPDEST PUSH2 0x1DFC DUP6 DUP3 DUP7 ADD PUSH2 0x198D JUMP JUMPDEST SWAP3 POP POP PUSH1 0x20 PUSH2 0x1E0D DUP6 DUP3 DUP7 ADD PUSH2 0x1860 JUMP JUMPDEST SWAP2 POP POP SWAP3 POP SWAP3 SWAP1 POP JUMP JUMPDEST PUSH1 0x0 DUP3 DUP3 MSTORE PUSH1 0x20 DUP3 ADD SWAP1 POP SWAP3 SWAP2 POP POP JUMP JUMPDEST PUSH32 0x416363657074696E67206120636F6E646974696F6E616C207061796D656E7420 PUSH1 0x0 DUP3 ADD MSTORE PUSH32 0x646F6573206E6F7420726571756972652073656E64696E67206164646974696F PUSH1 0x20 DUP3 ADD MSTORE PUSH32 0x6E616C2066756E64730000000000000000000000000000000000000000000000 PUSH1 0x40 DUP3 ADD MSTORE POP JUMP JUMPDEST PUSH1 0x0 PUSH2 0x1EAA PUSH1 0x49 DUP4 PUSH2 0x1E17 JUMP JUMPDEST SWAP2 POP PUSH2 0x1EB5 DUP3 PUSH2 0x1E28 JUMP JUMPDEST PUSH1 0x60 DUP3 ADD SWAP1 POP SWAP2 SWAP1 POP JUMP JUMPDEST PUSH1 0x0 PUSH1 0x20 DUP3 ADD SWAP1 POP DUP2 DUP2 SUB PUSH1 0x0 DUP4 ADD MSTORE PUSH2 0x1ED9 DUP2 PUSH2 0x1E9D JUMP JUMPDEST SWAP1 POP SWAP2 SWAP1 POP JUMP JUMPDEST PUSH32 0x4E487B7100000000000000000000000000000000000000000000000000000000 PUSH1 0x0 MSTORE PUSH1 0x32 PUSH1 0x4 MSTORE PUSH1 0x24 PUSH1 0x0 REVERT JUMPDEST PUSH32 0x4E487B7100000000000000000000000000000000000000000000000000000000 PUSH1 0x0 MSTORE PUSH1 0x22 PUSH1 0x4 MSTORE PUSH1 0x24 PUSH1 0x0 REVERT JUMPDEST PUSH1 0x0 PUSH1 0x2 DUP3 DIV SWAP1 POP PUSH1 0x1 DUP3 AND DUP1 PUSH2 0x1F56 JUMPI PUSH1 0x7F DUP3 AND SWAP2 POP JUMPDEST PUSH1 0x20 DUP3 LT DUP2 SUB PUSH2 0x1F69 JUMPI PUSH2 0x1F68 PUSH2 0x1F0F JUMP JUMPDEST JUMPDEST POP SWAP2 SWAP1 POP JUMP JUMPDEST PUSH1 0x0 DUP2 SWAP1 POP SWAP3 SWAP2 POP POP JUMP JUMPDEST PUSH1 0x0 DUP2 SWAP1 POP DUP2 PUSH1 0x0 MSTORE PUSH1 0x20 PUSH1 0x0 KECCAK256 SWAP1 POP SWAP2 SWAP1 POP JUMP JUMPDEST PUSH1 0x0 DUP2 SLOAD PUSH2 0x1F9C DUP2 PUSH2 0x1F3E JUMP JUMPDEST PUSH2 0x1FA6 DUP2 DUP7 PUSH2 0x1F6F JUMP JUMPDEST SWAP5 POP PUSH1 0x1 DUP3 AND PUSH1 0x0 DUP2 EQ PUSH2 0x1FC1 JUMPI PUSH1 0x1 DUP2 EQ PUSH2 0x1FD6 JUMPI PUSH2 0x2009 JUMP JUMPDEST PUSH1 0xFF NOT DUP4 AND DUP7 MSTORE DUP2 ISZERO ISZERO DUP3 MUL DUP7 ADD SWAP4 POP PUSH2 0x2009 JUMP JUMPDEST PUSH2 0x1FDF DUP6 PUSH2 0x1F7A JUMP JUMPDEST PUSH1 0x0 JUMPDEST DUP4 DUP2 LT ISZERO PUSH2 0x2001 JUMPI DUP2 SLOAD DUP2 DUP10 ADD MSTORE PUSH1 0x1 DUP3 ADD SWAP2 POP PUSH1 0x20 DUP2 ADD SWAP1 POP PUSH2 0x1FE2 JUMP JUMPDEST DUP4 DUP9 ADD SWAP6 POP POP POP JUMPDEST POP POP POP SWAP3 SWAP2 POP POP JUMP JUMPDEST PUSH1 0x0 PUSH2 0x201E DUP3 DUP5 PUSH2 0x1F8F JUMP JUMPDEST SWAP2 POP DUP2 SWAP1 POP SWAP3 SWAP2 POP POP JUMP JUMPDEST PUSH32 0x496E76616C6964207061796D656E742072657175657374204944000000000000 PUSH1 0x0 DUP3 ADD MSTORE POP JUMP JUMPDEST PUSH1 0x0 PUSH2 0x205F PUSH1 0x1A DUP4 PUSH2 0x1E17 JUMP JUMPDEST SWAP2 POP PUSH2 0x206A DUP3 PUSH2 0x2029 JUMP JUMPDEST PUSH1 0x20 DUP3 ADD SWAP1 POP SWAP2 SWAP1 POP JUMP JUMPDEST PUSH1 0x0 PUSH1 0x20 DUP3 ADD SWAP1 POP DUP2 DUP2 SUB PUSH1 0x0 DUP4 ADD MSTORE PUSH2 0x208E DUP2 PUSH2 0x2052 JUMP JUMPDEST SWAP1 POP SWAP2 SWAP1 POP JUMP JUMPDEST PUSH32 0x53656E646572206164647265737320646F6573206E6F74206D61746368207468 PUSH1 0x0 DUP3 ADD MSTORE PUSH32 0x65207061796D656E742072657175657374000000000000000000000000000000 PUSH1 0x20 DUP3 ADD MSTORE POP JUMP JUMPDEST PUSH1 0x0 PUSH2 0x20F1 PUSH1 0x31 DUP4 PUSH2 0x1E17 JUMP JUMPDEST SWAP2 POP PUSH2 0x20FC DUP3 PUSH2 0x2095 JUMP JUMPDEST PUSH1 0x40 DUP3 ADD SWAP1 POP SWAP2 SWAP1 POP JUMP JUMPDEST PUSH1 0x0 PUSH1 0x20 DUP3 ADD SWAP1 POP DUP2 DUP2 SUB PUSH1 0x0 DUP4 ADD MSTORE PUSH2 0x2120 DUP2 PUSH2 0x20E4 JUMP JUMPDEST SWAP1 POP SWAP2 SWAP1 POP JUMP JUMPDEST PUSH32 0x526F6F6D20646F6573206E6F74206D6174636820746865207061796D656E7420 PUSH1 0x0 DUP3 ADD MSTORE PUSH32 0x7265717565737400000000000000000000000000000000000000000000000000 PUSH1 0x20 DUP3 ADD MSTORE POP JUMP JUMPDEST PUSH1 0x0 PUSH2 0x2183 PUSH1 0x27 DUP4 PUSH2 0x1E17 JUMP JUMPDEST SWAP2 POP PUSH2 0x218E DUP3 PUSH2 0x2127 JUMP JUMPDEST PUSH1 0x40 DUP3 ADD SWAP1 POP SWAP2 SWAP1 POP JUMP JUMPDEST PUSH1 0x0 PUSH1 0x20 DUP3 ADD SWAP1 POP DUP2 DUP2 SUB PUSH1 0x0 DUP4 ADD MSTORE PUSH2 0x21B2 DUP2 PUSH2 0x2176 JUMP JUMPDEST SWAP1 POP SWAP2 SWAP1 POP JUMP JUMPDEST PUSH32 0x4E487B7100000000000000000000000000000000000000000000000000000000 PUSH1 0x0 MSTORE PUSH1 0x21 PUSH1 0x4 MSTORE PUSH1 0x24 PUSH1 0x0 REVERT JUMPDEST PUSH32 0x5061796D656E742072657175657374206973206E6F74206F70656E0000000000 PUSH1 0x0 DUP3 ADD MSTORE POP JUMP JUMPDEST PUSH1 0x0 PUSH2 0x221E PUSH1 0x1B DUP4 PUSH2 0x1E17 JUMP JUMPDEST SWAP2 POP PUSH2 0x2229 DUP3 PUSH2 0x21E8 JUMP JUMPDEST PUSH1 0x20 DUP3 ADD SWAP1 POP SWAP2 SWAP1 POP JUMP JUMPDEST PUSH1 0x0 PUSH1 0x20 DUP3 ADD SWAP1 POP DUP2 DUP2 SUB PUSH1 0x0 DUP4 ADD MSTORE PUSH2 0x224D DUP2 PUSH2 0x2211 JUMP JUMPDEST SWAP1 POP SWAP2 SWAP1 POP JUMP JUMPDEST PUSH32 0x4E487B7100000000000000000000000000000000000000000000000000000000 PUSH1 0x0 MSTORE PUSH1 0x11 PUSH1 0x4 MSTORE PUSH1 0x24 PUSH1 0x0 REVERT JUMPDEST PUSH1 0x0 PUSH2 0x228E DUP3 PUSH2 0x1A17 JUMP JUMPDEST SWAP2 POP PUSH2 0x2299 DUP4 PUSH2 0x1A17 JUMP JUMPDEST SWAP3 POP DUP3 DUP3 MUL PUSH2 0x22A7 DUP2 PUSH2 0x1A17 JUMP JUMPDEST SWAP2 POP DUP3 DUP3 DIV DUP5 EQ DUP4 ISZERO OR PUSH2 0x22BE JUMPI PUSH2 0x22BD PUSH2 0x2254 JUMP JUMPDEST JUMPDEST POP SWAP3 SWAP2 POP POP JUMP JUMPDEST PUSH32 0x4E487B7100000000000000000000000000000000000000000000000000000000 PUSH1 0x0 MSTORE PUSH1 0x12 PUSH1 0x4 MSTORE PUSH1 0x24 PUSH1 0x0 REVERT JUMPDEST PUSH1 0x0 PUSH2 0x22FF DUP3 PUSH2 0x1A17 JUMP JUMPDEST SWAP2 POP PUSH2 0x230A DUP4 PUSH2 0x1A17 JUMP JUMPDEST SWAP3 POP DUP3 PUSH2 0x231A JUMPI PUSH2 0x2319 PUSH2 0x22C5 JUMP JUMPDEST JUMPDEST DUP3 DUP3 DIV SWAP1 POP SWAP3 SWAP2 POP POP JUMP JUMPDEST PUSH1 0x0 PUSH2 0x2330 DUP3 PUSH2 0x1A17 JUMP JUMPDEST SWAP2 POP PUSH2 0x233B DUP4 PUSH2 0x1A17 JUMP JUMPDEST SWAP3 POP DUP3 DUP3 SUB SWAP1 POP DUP2 DUP2 GT ISZERO PUSH2 0x2353 JUMPI PUSH2 0x2352 PUSH2 0x2254 JUMP JUMPDEST JUMPDEST SWAP3 SWAP2 POP POP JUMP JUMPDEST PUSH1 0x0 PUSH2 0x2364 DUP3 PUSH2 0x1A17 JUMP JUMPDEST SWAP2 POP PUSH2 0x236F DUP4 PUSH2 0x1A17 JUMP JUMPDEST SWAP3 POP DUP3 DUP3 ADD SWAP1 POP DUP1 DUP3 GT ISZERO PUSH2 0x2387 JUMPI PUSH2 0x2386 PUSH2 0x2254 JUMP JUMPDEST JUMPDEST SWAP3 SWAP2 POP POP JUMP JUMPDEST PUSH1 0x0 PUSH2 0x2398 DUP3 PUSH2 0x1A17 JUMP JUMPDEST SWAP2 POP PUSH32 0xFFFFFFFFFFFFFFFFFFFFFFFFFFFFFFFFFFFFFFFFFFFFFFFFFFFFFFFFFFFFFFFF DUP3 SUB PUSH2 0x23CA JUMPI PUSH2 0x23C9 PUSH2 0x2254 JUMP JUMPDEST JUMPDEST PUSH1 0x1 DUP3 ADD SWAP1 POP SWAP2 SWAP1 POP JUMP JUMPDEST PUSH32 0x4D61746368696E6720636F6E646974696F6E616C207061796D656E74206E6F74 PUSH1 0x0 DUP3 ADD MSTORE PUSH32 0x20666F756E640000000000000000000000000000000000000000000000000000 PUSH1 0x20 DUP3 ADD MSTORE POP JUMP JUMPDEST PUSH1 0x0 PUSH2 0x2431 PUSH1 0x26 DUP4 PUSH2 0x1E17 JUMP JUMPDEST SWAP2 POP PUSH2 0x243C DUP3 PUSH2 0x23D5 JUMP JUMPDEST PUSH1 0x40 DUP3 ADD SWAP1 POP SWAP2 SWAP1 POP JUMP JUMPDEST PUSH1 0x0 PUSH1 0x20 DUP3 ADD SWAP1 POP DUP2 DUP2 SUB PUSH1 0x0 DUP4 ADD MSTORE PUSH2 0x2460 DUP2 PUSH2 0x2424 JUMP JUMPDEST SWAP1 POP SWAP2 SWAP1 POP JUMP JUMPDEST PUSH32 0x416D6F756E74206D7573742062652067726561746572207468616E2030000000 PUSH1 0x0 DUP3 ADD MSTORE POP JUMP JUMPDEST PUSH1 0x0 PUSH2 0x249D PUSH1 0x1D DUP4 PUSH2 0x1E17 JUMP JUMPDEST SWAP2 POP PUSH2 0x24A8 DUP3 PUSH2 0x2467 JUMP JUMPDEST PUSH1 0x20 DUP3 ADD SWAP1 POP SWAP2 SWAP1 POP JUMP JUMPDEST PUSH1 0x0 PUSH1 0x20 DUP3 ADD SWAP1 POP DUP2 DUP2 SUB PUSH1 0x0 DUP4 ADD MSTORE PUSH2 0x24CC DUP2 PUSH2 0x2490 JUMP JUMPDEST SWAP1 POP SWAP2 SWAP1 POP JUMP JUMPDEST PUSH32 0x496E73756666696369656E742062616C616E6365000000000000000000000000 PUSH1 0x0 DUP3 ADD MSTORE POP JUMP JUMPDEST PUSH1 0x0 PUSH2 0x2509 PUSH1 0x14 DUP4 PUSH2 0x1E17 JUMP JUMPDEST SWAP2 POP PUSH2 0x2514 DUP3 PUSH2 0x24D3 JUMP JUMPDEST PUSH1 0x20 DUP3 ADD SWAP1 POP SWAP2 SWAP1 POP JUMP JUMPDEST PUSH1 0x0 PUSH1 0x20 DUP3 ADD SWAP1 POP DUP2 DUP2 SUB PUSH1 0x0 DUP4 ADD MSTORE PUSH2 0x2538 DUP2 PUSH2 0x24FC JUMP JUMPDEST SWAP1 POP SWAP2 SWAP1 POP JUMP JUMPDEST PUSH32 0x4E6F2066756E647320617661696C61626C6520666F7220776974686472617761 PUSH1 0x0 DUP3 ADD MSTORE PUSH32 0x6C00000000000000000000000000000000000000000000000000000000000000 PUSH1 0x20 DUP3 ADD MSTORE POP JUMP JUMPDEST PUSH1 0x0 PUSH2 0x259B PUSH1 0x21 DUP4 PUSH2 0x1E17 JUMP JUMPDEST SWAP2 POP PUSH2 0x25A6 DUP3 PUSH2 0x253F JUMP JUMPDEST PUSH1 0x40 DUP3 ADD SWAP1 POP SWAP2 SWAP1 POP JUMP JUMPDEST PUSH1 0x0 PUSH1 0x20 DUP3 ADD SWAP1 POP DUP2 DUP2 SUB PUSH1 0x0 DUP4 ADD MSTORE PUSH2 0x25CA DUP2 PUSH2 0x258E JUMP JUMPDEST SWAP1 POP SWAP2 SWAP1 POP JUMP JUMPDEST PUSH32 0x416363657074696E672061207061796D656E74207265717565737420646F6573 PUSH1 0x0 DUP3 ADD MSTORE PUSH32 0x206E6F7420726571756972652073656E64696E67206164646974696F6E616C20 PUSH1 0x20 DUP3 ADD MSTORE PUSH32 0x66756E6473000000000000000000000000000000000000000000000000000000 PUSH1 0x40 DUP3 ADD MSTORE POP JUMP JUMPDEST PUSH1 0x0 PUSH2 0x2653 PUSH1 0x45 DUP4 PUSH2 0x1E17 JUMP JUMPDEST SWAP2 POP PUSH2 0x265E DUP3 PUSH2 0x25D1 JUMP JUMPDEST PUSH1 0x60 DUP3 ADD SWAP1 POP SWAP2 SWAP1 POP JUMP JUMPDEST PUSH1 0x0 PUSH1 0x20 DUP3 ADD SWAP1 POP DUP2 DUP2 SUB PUSH1 0x0 DUP4 ADD MSTORE PUSH2 0x2682 DUP2 PUSH2 0x2646 JUMP JUMPDEST SWAP1 POP SWAP2 SWAP1 POP JUMP JUMPDEST PUSH1 0x0 DUP2 MLOAD SWAP1 POP SWAP2 SWAP1 POP JUMP JUMPDEST PUSH1 0x0 DUP2 SWAP1 POP DUP2 PUSH1 0x0 MSTORE PUSH1 0x20 PUSH1 0x0 KECCAK256 SWAP1 POP SWAP2 SWAP1 POP JUMP JUMPDEST PUSH1 0x0 PUSH1 0x20 PUSH1 0x1F DUP4 ADD DIV SWAP1 POP SWAP2 SWAP1 POP JUMP JUMPDEST PUSH1 0x0 DUP3 DUP3 SHL SWAP1 POP SWAP3 SWAP2 POP POP JUMP JUMPDEST PUSH1 0x0 PUSH1 0x8 DUP4 MUL PUSH2 0x26F6 PUSH32 0xFFFFFFFFFFFFFFFFFFFFFFFFFFFFFFFFFFFFFFFFFFFFFFFFFFFFFFFFFFFFFFFF DUP3 PUSH2 0x26B9 JUMP JUMPDEST PUSH2 0x2700 DUP7 DUP4 PUSH2 0x26B9 JUMP JUMPDEST SWAP6 POP DUP1 NOT DUP5 AND SWAP4 POP DUP1 DUP7 AND DUP5 OR SWAP3 POP POP POP SWAP4 SWAP3 POP POP POP JUMP JUMPDEST PUSH1 0x0 DUP2 SWAP1 POP SWAP2 SWAP1 POP JUMP JUMPDEST PUSH1 0x0 PUSH2 0x273D PUSH2 0x2738 PUSH2 0x2733 DUP5 PUSH2 0x1A17 JUMP JUMPDEST PUSH2 0x2718 JUMP JUMPDEST PUSH2 0x1A17 JUMP JUMPDEST SWAP1 POP SWAP2 SWAP1 POP JUMP JUMPDEST PUSH1 0x0 DUP2 SWAP1 POP SWAP2 SWAP1 POP JUMP JUMPDEST PUSH2 0x2757 DUP4 PUSH2 0x2722 JUMP JUMPDEST PUSH2 0x276B PUSH2 0x2763 DUP3 PUSH2 0x2744 JUMP JUMPDEST DUP5 DUP5 SLOAD PUSH2 0x26C6 JUMP JUMPDEST DUP3 SSTORE POP POP POP POP JUMP JUMPDEST PUSH1 0x0 SWAP1 JUMP JUMPDEST PUSH2 0x2780 PUSH2 0x2773 JUMP JUMPDEST PUSH2 0x278B DUP2 DUP5 DUP5 PUSH2 0x274E JUMP JUMPDEST POP POP POP JUMP JUMPDEST JUMPDEST DUP2 DUP2 LT ISZERO PUSH2 0x27AF JUMPI PUSH2 0x27A4 PUSH1 0x0 DUP3 PUSH2 0x2778 JUMP JUMPDEST PUSH1 0x1 DUP2 ADD SWAP1 POP PUSH2 0x2791 JUMP JUMPDEST POP POP JUMP JUMPDEST PUSH1 0x1F DUP3 GT ISZERO PUSH2 0x27F4 JUMPI PUSH2 0x27C5 DUP2 PUSH2 0x2694 JUMP JUMPDEST PUSH2 0x27CE DUP5 PUSH2 0x26A9 JUMP JUMPDEST DUP2 ADD PUSH1 0x20 DUP6 LT ISZERO PUSH2 0x27DD JUMPI DUP2 SWAP1 POP JUMPDEST PUSH2 0x27F1 PUSH2 0x27E9 DUP6 PUSH2 0x26A9 JUMP JUMPDEST DUP4 ADD DUP3 PUSH2 0x2790 JUMP JUMPDEST POP POP JUMPDEST POP POP POP JUMP JUMPDEST PUSH1 0x0 DUP3 DUP3 SHR SWAP1 POP SWAP3 SWAP2 POP POP JUMP JUMPDEST PUSH1 0x0 PUSH2 0x2817 PUSH1 0x0 NOT DUP5 PUSH1 0x8 MUL PUSH2 0x27F9 JUMP JUMPDEST NOT DUP1 DUP4 AND SWAP2 POP POP SWAP3 SWAP2 POP POP JUMP JUMPDEST PUSH1 0x0 PUSH2 0x2830 DUP4 DUP4 PUSH2 0x2806 JUMP JUMPDEST SWAP2 POP DUP3 PUSH1 0x2 MUL DUP3 OR SWAP1 POP SWAP3 SWAP2 POP POP JUMP JUMPDEST PUSH2 0x2849 DUP3 PUSH2 0x2689 JUMP JUMPDEST PUSH8 0xFFFFFFFFFFFFFFFF DUP2 GT ISZERO PUSH2 0x2862 JUMPI PUSH2 0x2861 PUSH2 0x1890 JUMP JUMPDEST JUMPDEST PUSH2 0x286C DUP3 SLOAD PUSH2 0x1F3E JUMP JUMPDEST PUSH2 0x2877 DUP3 DUP3 DUP6 PUSH2 0x27B3 JUMP JUMPDEST PUSH1 0x0 PUSH1 0x20 SWAP1 POP PUSH1 0x1F DUP4 GT PUSH1 0x1 DUP2 EQ PUSH2 0x28AA JUMPI PUSH1 0x0 DUP5 ISZERO PUSH2 0x2898 JUMPI DUP3 DUP8 ADD MLOAD SWAP1 POP JUMPDEST PUSH2 0x28A2 DUP6 DUP3 PUSH2 0x2824 JUMP JUMPDEST DUP7 SSTORE POP PUSH2 0x290A JUMP JUMPDEST PUSH1 0x1F NOT DUP5 AND PUSH2 0x28B8 DUP7 PUSH2 0x2694 JUMP JUMPDEST PUSH1 0x0 JUMPDEST DUP3 DUP2 LT ISZERO PUSH2 0x28E0 JUMPI DUP5 DUP10 ADD MLOAD DUP3 SSTORE PUSH1 0x1 DUP3 ADD SWAP2 POP PUSH1 0x20 DUP6 ADD SWAP5 POP PUSH1 0x20 DUP2 ADD SWAP1 POP PUSH2 0x28BB JUMP JUMPDEST DUP7 DUP4 LT ISZERO PUSH2 0x28FD JUMPI DUP5 DUP10 ADD MLOAD PUSH2 0x28F9 PUSH1 0x1F DUP10 AND DUP3 PUSH2 0x2806 JUMP JUMPDEST DUP4 SSTORE POP JUMPDEST PUSH1 0x1 PUSH1 0x2 DUP9 MUL ADD DUP9 SSTORE POP POP POP JUMPDEST POP POP POP POP POP POP JUMP JUMPDEST PUSH32 0x4D61746368696E67207061796D656E742072657175657374206E6F7420666F75 PUSH1 0x0 DUP3 ADD MSTORE PUSH32 0x6E64000000000000000000000000000000000000000000000000000000000000 PUSH1 0x20 DUP3 ADD MSTORE POP JUMP JUMPDEST PUSH1 0x0 PUSH2 0x296E PUSH1 0x22 DUP4 PUSH2 0x1E17 JUMP JUMPDEST SWAP2 POP PUSH2 0x2979 DUP3 PUSH2 0x2912 JUMP JUMPDEST PUSH1 0x40 DUP3 ADD SWAP1 POP SWAP2 SWAP1 POP JUMP JUMPDEST PUSH1 0x0 PUSH1 0x20 DUP3 ADD SWAP1 POP DUP2 DUP2 SUB PUSH1 0x0 DUP4 ADD MSTORE PUSH2 0x299D DUP2 PUSH2 0x2961 JUMP JUMPDEST SWAP1 POP SWAP2 SWAP1 POP JUMP JUMPDEST PUSH32 0x53656E742076616C7565206D757374206D6174636820746865207472616E7361 PUSH1 0x0 DUP3 ADD MSTORE PUSH32 0x6374696F6E20616D6F756E740000000000000000000000000000000000000000 PUSH1 0x20 DUP3 ADD MSTORE POP JUMP JUMPDEST PUSH1 0x0 PUSH2 0x2A00 PUSH1 0x2C DUP4 PUSH2 0x1E17 JUMP JUMPDEST SWAP2 POP PUSH2 0x2A0B DUP3 PUSH2 0x29A4 JUMP JUMPDEST PUSH1 0x40 DUP3 ADD SWAP1 POP SWAP2 SWAP1 POP JUMP JUMPDEST PUSH1 0x0 PUSH1 0x20 DUP3 ADD SWAP1 POP DUP2 DUP2 SUB PUSH1 0x0 DUP4 ADD MSTORE PUSH2 0x2A2F DUP2 PUSH2 0x29F3 JUMP JUMPDEST SWAP1 POP SWAP2 SWAP1 POP JUMP JUMPDEST PUSH32 0x55736572206E6F7420666F756E64000000000000000000000000000000000000 PUSH1 0x0 DUP3 ADD MSTORE POP JUMP JUMPDEST PUSH1 0x0 PUSH2 0x2A6C PUSH1 0xE DUP4 PUSH2 0x1E17 JUMP JUMPDEST SWAP2 POP PUSH2 0x2A77 DUP3 PUSH2 0x2A36 JUMP JUMPDEST PUSH1 0x20 DUP3 ADD SWAP1 POP SWAP2 SWAP1 POP JUMP JUMPDEST PUSH1 0x0 PUSH1 0x20 DUP3 ADD SWAP1 POP DUP2 DUP2 SUB PUSH1 0x0 DUP4 ADD MSTORE PUSH2 0x2A9B DUP2 PUSH2 0x2A5F JUMP JUMPDEST SWAP1 POP SWAP2 SWAP1 POP JUMP INVALID LOG2 PUSH5 0x6970667358 0x22 SLT KECCAK256 0xE6 0xA5 POP CALLDATASIZE CREATE 0xC9 ISZERO PUSH31 0xC64CF9ED4B61A14BBB6FF71EED4E6AC4A962D8DF73C028A064736F6C634300 ADDMOD GT STOP CALLER "},"methodIdentifiers":{"acceptConditionalPayment(address,string)":"144b1bf2","acceptPaymentRequest(address,string)":"6e02de18","cancelConditionalPayment(string,address)":"dc19a8f6","checkPaymentRequest(address)":"6d314fa6","getAllUser()":"47531df8","initiateConditionalPayment(uint256,address,string,string,uint256)":"ca9c9e3e","initiatePaymentRequest(uint256,address,string,string)":"8cab1c55","registerAsUser(address)":"7b097b81","topUpAccount()":"2b07114b","withdraw()":"3ccfd60b","withdrawToExternalAddress(uint256,address)":"1b813e86"}}}}}